:020000040800F2
:10000000000002207D1D00089109000893090008E6
:1000100095090008970900089909000800000000E8
:100020000000000000000000000000009B09000824
:100030009D090008000000009F090008A1090008B0
:10004000CD1D0008CD1D0008CD1D0008CD1D0008E8
:10005000CD1D0008CD1D0008CD1D0008CD1D0008D8
:10006000CD1D0008CD1D0008CD1D0008CD1D0008C8
:10007000CD1D0008CD1D0008CD1D0008CD1D0008B8
:10008000CD1D0008CD1D0008CD1D0008CD1D0008A8
:10009000CD1D0008CD1D0008CD1D0008CD1D000898
:1000A000CD1D0008CD1D0008CD1D0008CD1D000888
:1000B000CD1D0008CD1D0008CD1D0008CD1D000878
:1000C000CD1D0008CD1D0008CD1D0008CD1D000868
:1000D000CD1D0008A9090008CD1D0008CD1D000890
:1000E000CD1D0008CD1D0008CD1D0008CD1D000848
:1000F000CD1D0008CD1D0008CD1D0008CD1D000838
:10010000CD1D0008CD1D0008CD1D0008CD1D000827
:10011000CD1D0008CD1D0008CD1D0008CD1D000817
:10012000CD1D0008CD1D0008CD1D0008CD1D000807
:10013000CD1D0008CD1D0008CD1D0008CD1D0008F7
:10014000CD1D0008CD1D0008CD1D0008CD1D0008E7
:10015000CD1D0008CD1D0008CD1D0008CD1D0008D7
:10016000CD1D0008CD1D0008CD1D0008CD1D0008C7
:10017000CD1D0008CD1D0008CD1D000800000000A9
:08018000CD1D0008CD1D000893
:1001C00010B5054C237833B9044B13B10448AFF391
:1001D00000800123237010BD4C08002000000000A7
:1001E000F836000808B5034B1BB103490348AFF3C9
:1001F000008008BD0000000050080020F83600080C
:1002000053B94AB9002908BF00281CBF4FF0FF317D
:100210004FF0FF3000F06CB9ADF1080C6DE904CE81
:1002200000F006F8DDF804E0DDE9022304B07047D1
:100230002DE9F047089E0D4604468E46002B40F0FF
:1002400082808A42174646D9B2FA82F24AB1C2F196
:10025000200105FA02F320FA01F1974041EA030E6A
:1002600094404FEA1748230CBEFBF8FCB9B208FBD8
:100270001CEE43EA0E430CFB01F098420AD9FB182E
:100280000CF1FF3580F01681984240F21381ACF1F9
:10029000020C3B441B1AA4B2B3FBF8F008FB10336A
:1002A00044EA034400FB01F1A14209D93C1900F1E1
:1002B000FF3380F00181A14240F2FE8002383C44CD
:1002C000641A40EA0C4000211EB1D4400023C6E964
:1002D0000043BDE8F08702B9FFDEB2FA82F2002ADD
:1002E0004FD1CB1B4FEA174E1FFA87F80121B3FB02
:1002F000FEFC250C0EFB1C3345EA034508FB0CF302
:10030000AB4207D97D190CF1FF3002D2AB4200F2AB
:10031000E7808446ED1AA3B2B5FBFEF00EFB105544
:1003200043EA054408FB00F8A04507D93C1900F151
:10033000FF3302D2A04500F2D7801846A4EB080490
:1003400040EA0C40C0E78B4208D9002E00F0AF8095
:100350000021C6E900050846BDE8F087B3FA83F13D
:1003600000294BD1AB4202D3824200F2B780841AFB
:1003700065EB030301209E46002EAAD0C6E9004E7D
:10038000A7E7C2F1200C01FA02F3974020FA0CF023
:100390004FEA174E21FA0CFC1843BCFBFEF1050C8A
:1003A0000EFB11CC1FFA87F845EA0C4501FB08F358
:1003B000AB4204FA02F409D97D1901F1FF3C80F047
:1003C0008B80AB4240F2888002393D44EB1A85B203
:1003D000B3FBFEF00EFB103345EA034500FB08F3C8
:1003E000AB4207D97D1900F1FF3C71D2AB426FD906
:1003F00002383D44EB1A40EA014178E7C1F1200C94
:100400008B4022FA0CF71F4320FA0CF405FA01F393
:100410004FEA174E25FA0CF51C43230CB5FBFEF9E9
:100420001FFA87F80EFB195543EA054509FB08FA40
:10043000AA4502FA01F200FA01F308D97D1909F17F
:10044000FF3047D2AA4545D9A9F102093D44A5EBA1
:100450000A05A4B2B5FBFEF00EFB105544EA0544B4
:1004600000FB08F8A04507D93C1900F1FF352DD253
:10047000A0452BD902383C4440EA0940A4EB0804CB
:10048000A0FB02894C45C6464D4619D316D05EB135
:10049000B3EB0E0264EB050404FA0CFCCA404CEA10
:1004A0000202CC40C6E900240021BDE8F0873146B5
:1004B00030460EE7AC46EDE6184601E74345E6D286
:1004C000B8EB020E69EB07050138E0E72846D3E7F1
:1004D00060468FE78146BAE7614677E708464BE713
:1004E000ACF1020C3D4415E702383C4426E700BF5E
:1004F000704700BF00000000000000000000000086
:1005000090F800F06DE9024520F007016FF0000C53
:1005100010F0070491F820F040F049804FF00004FB
:100520006FF00700D1E9002391F840F000F10800D6
:1005300082FA4CF2A4FA8CF283FA4CF3A2FA8CF30E
:100540004BBBD1E9022382FA4CF200F10800A4FA75
:100550008CF283FA4CF3A2FA8CF3E3B9D1E90423C9
:1005600082FA4CF200F10800A4FA8CF283FA4CF300
:10057000A2FA8CF37BB9D1E9062301F1200182FABA
:100580004CF200F10800A4FA8CF283FA4CF3A2FAC0
:100590008CF3002BC6D0002A04BF04301A4612BACE
:1005A000B2FA82F2FDE8024500EBD2007047D1E9D1
:1005B000002304F00305C4F100004FEAC50514F060
:1005C000040F91F840F00CFA05F562EA05021CBF31
:1005D00063EA050362464FF00004A9E7000000004B
:1005E00001F0FF01102A2BDB10F0070F08D010F8E4
:1005F000013B013A8B422DD010F0070F42B3F6D1E8
:10060000F0B441EA012141EA014122F007047FF000
:1006100000070023F0E80256083C85EA010586EA57
:10062000010685FA47F5A3FA87F586FA47F6A5FA93
:1006300087F68EB9EED1F0BC01F0FF0102F007029F
:1006400032B110F8013B013A83EA010313B1F8D14A
:100650000020704701387047002D06BF354603382B
:10066000073815F0010F07D1013015F4807F02BF64
:10067000013015F4C03F0130F0BC0138704700BFB5
:10068000844641EA000313F003036DD1403A41D39D
:1006900051F8043B40F8043B51F8043B40F8043B5C
:1006A00051F8043B40F8043B51F8043B40F8043B4C
:1006B00051F8043B40F8043B51F8043B40F8043B3C
:1006C00051F8043B40F8043B51F8043B40F8043B2C
:1006D00051F8043B40F8043B51F8043B40F8043B1C
:1006E00051F8043B40F8043B51F8043B40F8043B0C
:1006F00051F8043B40F8043B51F8043B40F8043BFC
:1007000051F8043B40F8043B51F8043B40F8043BEB
:10071000403ABDD2303211D351F8043B40F8043B8B
:1007200051F8043B40F8043B51F8043B40F8043BCB
:1007300051F8043B40F8043B103AEDD20C3205D39B
:1007400051F8043B40F8043B043AF9D2043208D093
:10075000D2071CBF11F8013B00F8013B01D30B8805
:1007600003806046704700BF082A13D38B078DD0E3
:1007700010F003038AD0C3F10403D21ADB071CBFB5
:1007800011F8013B00F8013B80D331F8023B20F81F
:10079000023B7BE7043AD9D3013A11F8013B00F858
:1007A000013BF9D20B7803704B7843708B788370E0
:1007B0006046704730B589B00024039404940594D2
:1007C000069407940094194B1A6B42F020021A63A6
:1007D0001A6B02F020020092009A01941A6B42F008
:1007E00080021A631A6B02F080020192019A02944D
:1007F0001A6B42F001021A631B6B03F001030293B0
:10080000029B0B4D22464FF4C061284600F0AEFB20
:100810004FF4C0630393012304930593069403A943
:10082000284600F0B9FA09B030BD00BF00380240D8
:100830000014024000B583B001904FF6FF7301220F
:1008400001A9034801F02DF8019803B05DF804FBFD
:100850006C08002072B6FEE700B595B0302200218A
:1008600008A801F0DFFA002303930493059306938D
:1008700007930193214A116C41F080511164126C6D
:1008800002F080520192019A02931D4B1A6842F4C1
:1008900080421A601B6803F480430293029B012389
:1008A00008934FF48033099302230E934FF4800290
:1008B0000F92082210924FF4A872119212930423FF
:1008C000139308A800F058FB98B90F230393022351
:1008D0000493002305934FF4A05306934FF48053E1
:1008E0000793052103A800F0A9FD20B915B05DF814
:1008F00004FBFFF7AFFFFFF7ADFF00BF003802407A
:100900000070004008B500F03FF9FFF7A5FFFFF7C2
:1009100051FF00F09BF80C4C00224FF48061204600
:1009200000F024FB094801F01BFB4FF4FA7000F0C3
:1009300057F901224FF48061204600F017FB4FF475
:10094000FA7000F04DF9E6E7001402401037000895
:1009500000B583B0002100910C4B5A6C42F48042E8
:100960005A645A6C02F480420092009A01911A6C07
:1009700042F080521A641B6C03F080530193019B78
:10098000052000F041F903B05DF804FB0038024097
:10099000FEE7FEE7FEE7FEE7FEE7704770477047B9
:1009A00008B500F00BF908BD08B5024801F06EF873
:1009B00008BD00BF6C08002070B50C461646002527
:1009C000B54207DAAFF30080214601F8010B01358B
:1009D0000C46F5E7304670BD70B50C46164600254E
:1009E000B54205DA14F8010BFFF724FF0135F7E7EC
:1009F000304670BD08B503460B4A126842B10A4A38
:100A0000106803446A46934206D8074A136008BD3B
:100A1000054A06491160F2E701F0DAF90C23036098
:100A20004FF0FF30F3E700BF6808002018090020EE
:100A30004FF0FF3070474FF400534B600020704779
:100A400001207047002070477047000008B50D482E
:100A50000D4B03604FF4E133436000238360C360B8
:100A600003610C2242618361C36100F0EBFE28B98F
:100A700001220649034801F064F908BDFFF7EAFEC8
:100A8000F6E700BF6C08002000100140B00800200D
:100A900010B588B00023039304930593069307933E
:100AA000026803F1804303F588339A4201D008B00D
:100AB00010BD0022019203F59433596C41F01001EE
:100AC0005964596C01F01001019101990292196B5E
:100AD00041F0010119631B6B03F001030293029BB8
:100AE0004FF4C063039302240494059203230693F6
:100AF0000723079303A9064800F04EF92246214632
:100B0000252000F093F8252000F0C4F8CFE700BFBF
:100B10000000024038B5074D074C4FF47A730122AC
:100B20002946204600F0BDFE01222946204601F05C
:100B300008F938BDB00800206C08002010B5044644
:100B40000E4B18784FF47A73B3FBF0F30C4A10682D
:100B5000B0FBF3F000F0ACF868B90F2C01D901201C
:100B60000AE0002221464FF0FF3000F05FF8054B0D
:100B70001C60002000E0012010BD00BF0400002028
:100B8000000000200800002008B50B4B1A6842F452
:100B900000721A601A6842F480621A601A6842F49D
:100BA00080721A60032000F02FF80020FFF7C6FFC4
:100BB000FFF7CEFE002008BD003C0240034A11684A
:100BC000034B1B780B441360704700BFB408002030
:100BD00004000020014B1868704700BFB4080020D3
:100BE00038B50446FFF7F6FF0546B4F1FF3F02D0E3
:100BF000044B1B781C44FFF7EDFF401BA042FAD3C7
:100C000038BD00BF04000020074AD36823F4E06326
:100C10001B041B0C000200F4E060034343F0BF63BD
:100C200043F40033D360704700ED00E030B4174B5D
:100C3000DB68C3F30223C3F10704042C28BF042498
:100C40001D1D062D18D9033B4FF0FF3505FA04F49E
:100C500021EA0401994005FA03F322EA0303194348
:100C600000280BDB0901C9B200F1604000F56140CA
:100C700080F8001330BC70470023E5E700F00F0058
:100C80000901C9B2024B1954F4E700BF00ED00E0BE
:100C900014ED00E0002807DB00F01F0240090123EB
:100CA0009340024A42F82030704700BF00E100E064
:100CB0000138B0F1807F0AD2064B5860064AF02115
:100CC00082F823100020986007221A6070470120E4
:100CD000704700BF10E000E000ED00E070B5044692
:100CE000866DFFF777FF94F83530DBB2022B06D024
:100CF00080236365002384F83430012070BD0546ED
:100D00002268136823F0160313602268536923F0E6
:100D100080035361236CE3B12268136823F0080356
:100D200013602268136823F00103136023681B68B3
:100D300013F0010F11D0FFF74DFF431B052BF5D921
:100D400020236365032084F83500002384F83430C1
:100D5000D4E7A36C002BDFD1E3E7E26D3F239340A0
:100D6000B360012384F83530002084F83400C5E7EF
:100D700090F83530DBB2022B03D08023436501208D
:100D80007047052380F835300268136823F00103AB
:100D9000136000207047000000230F2B00F2DD805D
:100DA000F0B482B05DE086685F000324BC4026EAB0
:100DB0000406CC68BC4034438460466826EA0206D8
:100DC0004C68C4F300129A403243426057E0DC089A
:100DD000083450F8247003F0070296000F22B24046
:100DE00027EA02070A69B2403A4340F824205AE051
:100DF000072200E00022B2403A430234574E46F840
:100E00002420574A1468EA4324EA05064F6817F479
:100E1000803F01D045EA0406514C2660646802EA2E
:100E200004064F6817F4003F01D045EA04064C4C15
:100E30006660A46802EA04064F6817F4801F01D0B8
:100E400045EA0406464CA660E46822404E6816F463
:100E5000001F01D045EA0402414CE26001330F2B30
:100E600078D801229A400C6804EA020532EA0404A8
:100E7000F4D14C6804F00304013C012C93D94A6876
:100E800002F00302032A09D0C4685E000322B240C4
:100E900024EA02048A68B2402243C2604A6802F02F
:100EA0000302022A93D004685E000322B24024EABF
:100EB00002044A6802F00302B240224302604A6818
:100EC00012F4403FCAD000220192264A546C44F4E6
:100ED00080445464526C02F480420192019A9C084E
:100EE000A61C1E4A52F8267003F0030296000F2239
:100EF000B24027EA02071C4A90423FF47BAF02F55A
:100F0000806290421AD002F58062904218D002F5B9
:100F10008062904216D002F58062904214D002F5B1
:100F20008062904212D002F58062904210D002F5A9
:100F3000806290423FF45CAF08225CE701225AE7EE
:100F4000022258E7032256E7042254E7052252E71B
:100F5000062250E702B0F0BC7047704700380140ED
:100F6000003C014000380240000002400AB18161AB
:100F70007047090481617047002800F0DF8170B577
:100F800082B00446036813F0010F3BD0A64B9B6868
:100F900003F00C03042B2CD0A34B9B6803F00C0331
:100FA000082B21D06368B3F5803F4FD0B3F5A02F55
:100FB00052D09D4B1A6822F480321A601A6822F4CB
:100FC00080221A606368002B50D0FFF703FE0546AD
:100FD000954B1B6813F4003F14D1FFF7FBFD401B3A
:100FE0006428F5D90320B0E18F4B5B6813F4800FC0
:100FF000D8D08D4B1B6813F4003F03D06368002BDF
:1010000000F09E81236813F0020F54D0864B9B683A
:1010100013F00C0F3ED0844B9B6803F00C03082B9D
:1010200033D0E368002B67D0804B01221A60FFF7B2
:10103000D1FD05467C4B1B6813F0020F53D1FFF71F
:10104000C9FD401B0228F5D903207EE1764A1368CA
:1010500043F480331360B5E7734B1A6842F480227F
:101060001A601A6842F480321A60ABE7FFF7B2FDEB
:1010700005466D4B1B6813F4003FC3D0FFF7AAFD74
:10108000401B6428F5D903205FE1674B5B6813F4CC
:10109000800FC6D1644B1B6813F0020F03D0E368C6
:1010A000012B40F04F81604A136823F0F803216957
:1010B00043EAC1031360236813F0080F40D063694B
:1010C00063B35B4B01221A60FFF784FD0546564B64
:1010D0005B6F13F0020F33D1FFF77CFD401B02283A
:1010E000F5D9032031E1504A136823F0F803216950
:1010F00043EAC1031360DEE74C4B00221A60FFF79E
:1011000069FD0546484B1B6813F0020FD3D0FFF76B
:1011100061FD401B0228F5D9032016E1444B002253
:101120001A60FFF757FD05463F4B5B6F13F0020F48
:1011300006D0FFF74FFD401B0228F5D9032004E13C
:10114000236813F0040F78D0374B1B6C13F0805FCB
:101150000DD100230193344B1A6C42F080521A6473
:101160001B6C03F080530193019B012500E00025D7
:10117000304B1B6813F4807F21D0A368012B32D041
:10118000052B36D0284B1A6F22F001021A671A6F0E
:1011900022F004021A67A368002B34D0FFF71AFD6F
:1011A0000646214B1B6F13F0020F45D1FFF712FDCE
:1011B000801B41F288339842F3D90320C5E01D4AD1
:1011C000136843F480731360FFF704FD0646194B60
:1011D0001B6813F4807FD0D1FFF7FCFC801B022832
:1011E000F5D90320B1E0104A136F43F001031367F0
:1011F000D1E70D4B1A6F42F004021A671A6F42F0E2
:1012000001021A67C7E7FFF7E5FC0646064B1B6FAE
:1012100013F0020F10D0FFF7DDFC801B41F2883382
:101220009842F3D9032090E0003802400000474282
:10123000800E474200700040EDB9A369002B00F01A
:101240008380494A926802F00C02082A51D0022B8E
:1012500017D0464B00221A60FFF7BCFC0446424BF5
:101260001B6813F0007F42D0FFF7B4FC001B02287C
:10127000F5D9032069E03C4A136C23F080531364D2
:10128000DBE73A4B00221A60FFF7A4FC0546364B19
:101290001B6813F0007F06D0FFF79CFC401B022860
:1012A000F5D9032051E0E369226A1343626A43EAF5
:1012B0008213A26A5208013A43EA0243E26A43EA0D
:1012C0000263294A5360294B01221A60FFF782FC0E
:1012D0000446254B1B6813F0007F06D1FFF77AFC0C
:1012E000001B0228F5D903202FE000202DE000206C
:1012F0002BE0012B2BD01C4B5B6803F48001E269CF
:10130000914226D103F03F02216A8A4223D1616AC9
:1013100047F6C0721A40B2EB811F1ED103F4403170
:10132000A26A5208013AB1EB024F18D103F0706380
:10133000E26AB3EB026F14D1002006E0012070478F
:10134000012002E0012000E0002002B070BD012079
:10135000FBE70120F9E70120F7E70120F5E701208D
:10136000F3E70120F1E700BF003802406000474288
:10137000F8B52F4B9B6803F00C03042B53D0082BBC
:1013800053D12B4B5A6802F03F025B6813F4800F75
:1013900028D0274B5B68C3F3881358010021C01A7B
:1013A00061F100018E0146EA906687013C1A66EB06
:1013B0000105E90041EA5471E000C01841F1000163
:1013C0004B0243EAD0534402204619460023FEF75D
:1013D00017FF174B5B68C3F3014301335B00B0FB9E
:1013E000F3F023E0124B5B68C3F388135C01002524
:1013F000E41A65F10005AE0146EA9466A701381BC0
:1014000066EB0501CC0044EA5074C500E81844F1CD
:1014100000018B0243EA90538402204619460023C0
:10142000FEF7EEFED5E7034800E00348F8BD00BF35
:101430000038024000127A000024F400002800F076
:101440009B8070B50D4604464F4B1B6803F00703A5
:101450008B4208D2CBB24C4A1370136803F00703D7
:101460008B4240F08B80236813F0020F17D013F0EB
:10147000040F04D0454A936843F4E0539360236813
:1014800013F0080F04D0414A936843F4604393601B
:101490003E4A936823F0F003A1680B4393602368EE
:1014A00013F0010F32D06368012B21D09A1E012A5C
:1014B00025D9364A126812F0020F61D033498A6882
:1014C00022F0030213438B60FFF784FB06462F4B89
:1014D0009B6803F00C036268B3EB820F16D0FFF732
:1014E00079FB801B41F288339842F0D9032042E017
:1014F000264A126812F4003FE0D101203BE0234A63
:10150000126812F0007FD9D1012034E01E4B1B6815
:1015100003F00703AB4207D9EAB21B4B1A701B68F2
:1015200003F00703AB422DD1236813F0040F06D05C
:10153000164A936823F4E053E1680B4393602368F1
:1015400013F0080F07D0114A936823F46043216910
:1015500043EAC1039360FFF70BFF0C4B9B68C3F397
:1015600003130B4AD35CD8400A4B18600A4B186827
:10157000FFF7E4FA002070BD012070470120FAE770
:101580000120F8E70120F6E7003C02400038024065
:10159000183700080000002008000020014B1868E0
:1015A000704700BF0000002008B5FFF7F7FF044BAD
:1015B0009B68C3F38223034AD35CD84008BD00BFB5
:1015C000003802402837000808B5FFF7E7FF044B52
:1015D0009B68C3F34233034AD35CD84008BD00BFC5
:1015E0000038024028370008026802F10C0353E873
:1015F000003F23F490730C3242E800310029F3D10C
:10160000026802F1140353E8003F23F0010314328F
:1016100042E800310029F3D1036B012B05D02023D0
:1016200080F83E30002303637047026802F10C0328
:1016300053E8003F23F010030C3242E80031002948
:10164000F3D1ECE790F83D30DBB2212B01D0022042
:1016500070478368B3F5805F17D0036A5A1C026233
:101660001A7803685A60C38C9BB2013B9BB2C38457
:101670004BB90268D36823F08003D3600268D36853
:1016800043F04003D360002070470369002BE4D18E
:10169000036A1B880268C3F308035360036A0233BA
:1016A0000362E0E770B504460268136923F440530F
:1016B000C1680B4313618368026913434269134392
:1016C000C2691A430168CB6823F4164323F00C0364
:1016D0001343CB600268536923F4407381690B4361
:1016E00053610368344A934206D002F58062934204
:1016F00002D0FFF759FF01E0FFF766FFE369B3F59A
:10170000004F2AD00026051846EB06012D1846EB9F
:101710000101CB0043EA5573EA0015461946636898
:101720009A009B0F281846EB0101FEF769FD234D37
:10173000A5FB00325109642303FB11031B01323363
:10174000A5FB03235B0903F0F00202EB011203F097
:101750000F03216813448B6070BD0026051846EB0B
:1017600006012D1846EB0101CB0043EA5573EA0050
:101770001546194662683346921846EB030328184B
:1017800046EB0101FEF73CFD0C4DA5FB0032510973
:10179000642303FB1103DB003233A5FB03235B0946
:1017A0005A0002F4F87202EB011203F007032168F9
:1017B00013448B60D0E700BF001001401F85EB5140
:1017C0002DE9F84305460F4616469946DDF8208078
:1017D0002C68246837EA04030CBF01240024B442B7
:1017E0002DD1B8F1FF3FF3D0B8F1000F05D0FFF7CE
:1017F000F1F9A0EB09004045EAD92A6802F10C038F
:1018000053E8003F23F4D0730C3242E80031002942
:10181000F3D12A6802F1140353E8003F23F00103D7
:10182000143242E800310029F3D1202385F83D30FD
:1018300085F83E30002385F83C30032000E000208E
:10184000BDE8F88358B310B5044690F83D300BB3AB
:10185000242384F83D302268D36823F40053D360F6
:101860002046FFF71FFF2268136923F4904313619A
:101870002268536923F02A0353612268D36843F432
:101880000053D36000202064202384F83D3084F886
:101890003E3010BD80F83C30FFF7FAF8D8E7012061
:1018A00070472DE9F04182B01E4690F83D30DBB222
:1018B000202B54D104460D469046002953D0002ACF
:1018C00053D090F83C30012B51D0012380F83C30AC
:1018D00000230364212380F83D30FFF77BF907469E
:1018E000A4F82480A4F82680A368B3F5805F05D00F
:1018F0004FF00008002384F83C3012E0236913B154
:101900004FF00008F6E7A8460025F3E738F8023B59
:101910002268C3F308035360E28C92B2013A92B298
:10192000E284E38C9BB273B100963B460022802197
:101930002046FFF745FFE0B9002DE7D015F8012B51
:1019400023685A60E8E700963B4600224021204683
:10195000FFF736FF78B9202384F83D3000E00220FD
:1019600002B0BDE8F0810120FAE70120F8E702208B
:10197000F6E70320F4E70320F2E7704708B50168B3
:10198000CA6822F04002CA60202280F83D20FFF79A
:10199000F4FF002008BD704708B5806B0023C385A5
:1019A000C384FFF7F8FF08BD704790F83E30DBB204
:1019B000222B67D18368B3F5805F4DD0826AB3F57F
:1019C000805F04D0002B54D10369002B51D10368F0
:1019D0005B681370836A01338362C38D9BB2013BE2
:1019E0009BB2C385002B4FD100B583B00268D3688A
:1019F00023F02003D3600268D36823F48073D3609C
:101A00000268536923F001035361202380F83E30BC
:101A1000036B012B33D100230363026802F10C0333
:101A200053E8003F23F010030C3242E80031002954
:101A3000F3D103681A6812F0100F06D00022019249
:101A40001A6801925B680193019B818DFFF7ACFFDF
:101A5000002003B05DF804FB0269002AAED1826A5F
:101A600003685B68C3F308031380836A02338362ED
:101A7000B3E703685B6803F07F031370AAE7FFF71F
:101A800049F8E5E7022070470020704730B583B081
:101A9000044602681368D068516913F00F0505D138
:101AA00013F0200F02D010F0200F19D12DB111F03A
:101AB000010119D110F4907F16D1216B01297DD03D
:101AC00013F0800F03D010F0800F40F0158113F059
:101AD000400F03D010F0400F40F0128103B030BD32
:101AE0002046FFF762FFF9E713F0010F06D010F46C
:101AF000807F03D0226C42F00102226413F0040FB5
:101B000004D019B1226C42F00202226413F0020FD9
:101B100004D019B1226C42F00402226413F0080FC1
:101B200007D010F0200F00D119B1226C42F008024A
:101B30002264226C002AD1D013F0200F02D010F0C2
:101B4000200F29D123685B6903F04003226C12F057
:101B5000080F00D163B32046FFF746FD23685B6999
:101B600013F0400F20D0226802F1140353E8003F25
:101B700023F04003143242E800310029F3D1A36B73
:101B800073B1614A1A65A06BFFF7F2F80028A5D07F
:101B9000A06B036D9847A1E72046FFF706FFD1E74A
:101BA0002046FFF7F8FE99E72046FFF7F4FE95E799
:101BB0002046FFF7F0FE002323648FE713F0100F99
:101BC0003FF47EAF10F0100F3FF47AAF0023019383
:101BD0001368019353680193019B536913F0400FFD
:101BE00050D0A26B13685B689BB2002B3FF476AFBA
:101BF000A18D99427FF672AFE385D369B3F5807FFB
:101C000037D0226802F10C0353E8003F23F48073BD
:101C10000C3242E800310029F3D1226802F11403AA
:101C200053E8003F23F00103143242E80031002959
:101C3000F3D1226802F1140353E8003F23F040037C
:101C4000143242E800310029F3D1202384F83E30D9
:101C500000232363226802F10C0353E8003F23F0C2
:101C600010030C3242E800310029F3D1A06BFFF7DA
:101C700035F8A18DE38D9BB2C91A89B22046FFF7D2
:101C800093FE2BE7A18DE38D9BB2C91A89B2E38D38
:101C90009BB2002B3FF422AF00293FF41FAF226814
:101CA00002F10C0353E8003F23F490730C3242E836
:101CB00000300028F3D1226802F1140353E8003FFA
:101CC00023F00103143242E800300028F3D120232E
:101CD00084F83E3000232363226802F10C0353E8AA
:101CE000003F23F010030C3242E800300028F3D10B
:101CF0002046FFF759FEF1E62046FFF7A3FCEDE68C
:101D00002046FFF73BFEE9E6991900080346816289
:101D10008285C28500201864222283F83E2083F841
:101D20003C001968CA6842F48072CA6019684A693E
:101D300042F001024A611A68D36843F02003D3607D
:101D4000704708B590F83E30DBB2202B0DD171B151
:101D50007AB190F83C30012B0DD0012380F83C3053
:101D600000230363FFF7D2FF00E0022008BD01203B
:101D7000FCE70120FAE70220F8E70000DFF834D0A2
:101D80000D480E490E4A002302E0D458C4500433D3
:101D9000C4188C42F9D30B4A0B4C002301E01360AA
:101DA0000432A242FBD3FEF74FFE00F017F8FEF715
:101DB000A9FD704700000220000000204C08002010
:101DC0004C3700084C08002014090020FEE70000F2
:101DD000014B1868704700BF0C00002070B50D4E15
:101DE0000D4D761BB61006D0002455F8043B013487
:101DF0009847A642F9D1094E094D761B01F07CFCAB
:101E0000B61006D0002455F8043B01349847A6428A
:101E1000F9D170BD40370008403700084837000846
:101E200040370008F0B4860746D0541E002A3CD044
:101E3000CAB2034601E0013C37D303F8012B9D07EA
:101E4000F9D1032C2AD9CDB245EA05250F2C45EA54
:101E5000054534D9A4F1100222F00F0C03F120073C
:101E60001609674403F1100242E9045542E902559C
:101E70001032BA42F8D1721C14F00C0F03EB0212AC
:101E800004F00F0613D0331F23F00303043313446D
:101E900042F8045B9342FBD106F003042CB1CAB2B2
:101EA0001C4403F8012B9C42FBD1F0BC7047344624
:101EB0001346002CF3D1F8E714460346C1E71A464F
:101EC0002646E0E770B5054688B008460C46FEF7A2
:101ED00017FB224AAB6B04940126441C04A906920A
:101EE00002220394CDE90112AC680590079623B352
:101EF000636E13F0010FB4F90C309AB201D198055A
:101F000025D5910406D4626E43F4005322F40052A6
:101F1000A3816266284601AA214600F0B3F8636EE9
:101F2000002814BF4FF0FF350A25DA0702D4A38931
:101F30009B0506D5284608B070BD284600F056F827
:101F4000D6E7A06D00F038FA284608B070BDA06D45
:101F500000F030FAB4F90C309AB2D2E73437000806
:101F6000024B01461868FFF7ADBF00BF0C00002010
:101F7000024B13B1024800F005B8704700000000A2
:101F800059200008002301461A46184601F00EB8F1
:101F900010B500230446C0E90033C0E90433818151
:101FA000C281836043668361194608225C30FFF773
:101FB00039FF07480749084A084BE362C4E907406C
:101FC000C4E9091204F15800BDE8104000F0EEB970
:101FD000252E0008492E0008892E0008A92E000889
:101FE000014900F0BFB900BF5D30000810B50446DC
:101FF000114800F0DFF9A26BC2B904F53B730F483A
:10200000C4F8E0220321C4E9B913E0630421606845
:10201000FFF7BEFFA06801220921FFF7B9FFE068C2
:1020200002221221FFF7B4FF0123A363BDE8104091
:10203000014800F0C1B900BFF8080020E11F000806
:10204000014800F0B7B900BF0C090020014800F0BA
:10205000B3B900BF0C09002038B5084B084D5B1B15
:102060009C1007D0043B1D44013C55F804399847A7
:10207000002CF9D1BDE8384001F044BB4C370008D2
:10208000483700089368002B00F08A802DE9F04F54
:102090009046B1F90C200C46110783B0814693B2EB
:1020A00025D522691AB313F00207D8F800502DD0B5
:1020B0000026DFF8ACB23746AA465F453B463246BB
:1020C00028BF5B464846002F4FD0E169656AA847A4
:1020D00000285BDDD8F808301B1A06443F1AC8F800
:1020E0000830002BE9D1002003B0BDE8F08F214675
:1020F000484600F0F3FE002840F02F81B4F90C2090
:10210000D8F8005093B213F00207D1D113F0010AAE
:1021100048D156462EB39A05A76840F18C80B74245
:10212000BB4600F2B78013F4906F40F0CB8020687C
:102130005A46514600F0FCFBA2682368D21B5B4460
:102140003746A26023600026D8F80830DB1BBA446B
:10215000C8F80830002BC6D0B4F90C309BB2002E62
:10216000D9D1D5E900A60835D4E7DAE900670AF144
:10217000080AA2E729465A4600F0DAFB23685B44C6
:1021800023602146484601F067F858B3B4F90C3093
:1021900043F040034FF0FF30A38103B0BDE8F08F60
:1021A000002070473E46AA4638463D4600976EB32B
:1021B000002833D0009A2068D4E90413B24228BF23
:1021C0003246884204D9A16803EB010B5A45D1DCA1
:1021D00093426ADCE169676A2A464846B847B0F12B
:1021E000000BD3DD009BB3EB0B03009356D0012013
:1021F000D8F80830A3EB0B035D44A6EB0B06C8F838
:102200000830002B3FF46FAF002ED1D10AF1080344
:1022100053E902569A460833002EF9D032460A2175
:102220002846FEF7DDF9002800F08E800130431BC0
:1022300000931A46BFE720682369984214D8616961
:10224000B14211D86FF00043B34228BF3346676AEA
:1022500093FBF1F3524601FB03F34846E169B847AB
:10226000071E93DDF61B6FE7B74228BF37463A4695
:10227000514600F05DFBA3682268DB1B3A44A36073
:102280002260002BEED12146484600F0E5FF0028F1
:10229000E8D07BE720683746B34649E72146484601
:1022A00000F0DAFF0028A3D070E72946019200F081
:1022B0003FFB019AA1682368891A1344A160236037
:1022C00093468FE7D4E90417226807EB4707A2EB90
:1022D000010B07EBD7770BF101007F103044B842B8
:1022E0003A4684BF07463A465B051BD51146484629
:1022F00000F064F858B35A4621690090FEF7C0F91F
:10230000A289009B22F4906242F08002A281A7EB96
:102310000B0203EB0B00676123612060A26037466C
:10232000B34605E7484600F07BFB03460028EED1A4
:102330002169484601F00EF8B4F90C300C2223F064
:102340008003C9F8002023E7721C009233E70C23B6
:10235000C9F80030B4F90C301AE74FF0FF30C3E68B
:1023600000FCFF7F2DE9F8430746884600F53876E4
:102370004FF00009D6E90154013D11D4A389012B86
:1023800005F1FF3508D9B4F90E30013304D02146E8
:102390003846C04749EA00096B1C04F16804EDD1D6
:1023A0003668002EE6D14846BDE8F883704700BF86
:1023B000704700BF704700BF704700BF2DE9F04F66
:1023C00001F10B05162D83B0064624D8102900F222
:1023D000B78000F019FB102502211823DFF8F084E4
:1023E0004344A3F108025C68944200F0B58063683E
:1023F00023F003032344D4E902515A68E96042F010
:10240000010230468D605A6000F004FB083420461B
:1024100003B0BDE8F08F35F0070500F19180A942C7
:1024200000F28E8000F0F0FAB5F5FC7FC0F09081EC
:102430006B0A00F08C80042B00F26681AB0903F17B
:10244000390103F13807CB00DFF884844344A3F15A
:1024500008005C68A04206D10CE0002A80F22281CC
:10246000E468A04206D0636823F003035A1B0F2AD6
:10247000F3DD3946D8F81040DFF858C4644577D00A
:10248000626822F00302531B0F2B00F36F81002BB5
:10249000C8E904CC80F26081B2F5007F80F0108141
:1024A000D3080133500901228240D8F8040058F8BB
:1024B0003370A76008EBC30E0243AEF10800E06082
:1024C000C8F8042048F83340FC608B100120984085
:1024D000904254D8104206D121F00301400010422E
:1024E00001F10401FAD008EBC1094C468E46E768B9
:1024F000BC4207D114E1002B80F21B81FF68BC4273
:1025000000F00E817A6822F00302531B0F2BF2DDDC
:10251000D7E902E4791945F001057D6043F0010532
:10252000CEF80C403046C4F808E0C8E90411C1E90F
:1025300002CC4D60BB5000F06DFA07F1080402E0D8
:102540000C2333600024204603B0BDE8F08F4FF425
:10255000007340213F2777E7DC68A34208BF0231C0
:102560007FF445AFD8F81040DFF868C3644587D1E1
:10257000D8F804208B10012098409042AAD9D8F8AE
:102580000840676827F00307BD4202D87B1B0F2B6A
:1025900077DCDFF84493CA4BD9F800201B6801327E
:1025A0002B4404EB070A00F02E8103F580530F3310
:1025B00023F47F6B2BF00F0B5946304600F020FCC4
:1025C000411C024600F0EB80824500F2E680BD4BE4
:1025D000196859441960084600F04B81D9F8001079
:1025E000019301311BBFA2EB0A0A5044C9F8002035
:1025F000186012F0070A00F01481CAF108010A44B9
:10260000CAF5805193440831A1EB0B01C1F30B09CA
:1026100049463046009200F0F3FB421CDDE90023FE
:1026200000F05C81801A00EB090B1968C8F80820DB
:102630004BF00100494444455060196000F0268188
:102640000F2F40F2258160680C3F27F0070700F04C
:10265000010004EB070C38434FF0050E0F2F6060AC
:10266000CCE901EE00F2428150681446964B1A689C
:102670008A4238BF1960954B1A688A4238BF196080
:1026800090E0621943F0010345F0010565603046B2
:10269000C8F80820536000F0BDF90834204603B0A4
:1026A000BDE8F08F2344E1685A68A56842F0010252
:1026B000E96030468D605A6000F0ACF9083442E7BA
:1026C000B2F5206F4FEA522361D3142B00F2BA8087
:1026D00003F15C00C0005B3308EB000758F8000012
:1026E000083F874200F09280436823F0030393423F
:1026F00002D980688742F7D1C768D8F80420C4E9B6
:102700000207BC60C460E0E6142B59D9542B00F2D8
:10271000A1802B0B03F16F0103F16E07CB0093E651
:102720000EF1010E1EF0030F04F108047FF4DFAE7A
:1027300051E03A443C465368F96854F8085F43F066
:10274000010353603046E9608D6000F063F9FAE6FA
:10275000E90805F1080341E622443046536843F096
:1027600001035360083400F055F9ECE6611943F0B9
:10277000010745F0010565603046C8E90411C1E96B
:1027800002CC4F60A35000F045F90834DBE6930912
:1027900003F13900C00038339EE7444564D0D8F8CF
:1027A0000840606820F0030B5D45ABEB050302D8E1
:1027B0000F2B3FF766AF304600F02CF90024C2E63D
:1027C00003F15C0103F15B07CB003DE659F80839E2
:1027D0004B4540F0AA8011F0030F01F1FF31F5D114
:1027E000D8F8043023EA0003C8F8043040009842C7
:1027F0003FF6C5AE18B9C2E640000EF1040E18420D
:10280000FAD071466FE603F1100BD5E69A104FF03F
:10281000010ED8F804300EFA02F21A43C8F8042068
:102820006DE702EB0B014942C1F30B094946304603
:10283000009200F0E5FA431CDDE900237FF4F2AEDC
:10284000D146F2E6542B26D8130B03F16F00C000DB
:102850006E3341E7B3F5AA7F26D8EB0B03F178017D
:1028600003F17707CB00EFE5164B18685844186062
:10287000B4E6CAF30B0CBCF1000F7FF4AFAED8F88E
:102880000840BB444BF001006060EFE61446EDE603
:10289000012353608FE7B3F5AA7F33D8D30B03F13D
:1028A0007800C000773317E740F25452934233D890
:1028B000AB0C03F17D0103F17C07CB00C4E500BF45
:1028C000E8080020B8080020E0080020E408002004
:1028D0003C0400204404002044080020AAF1080A17
:1028E000D344ABEB020B4FF000099EE604F1080164
:1028F0003046009300F02EFDD8F80840009B606839
:102900001968B3E640F2545083420AD8930C03F19D
:102910007D00C0007C33DFE64FF47E737F217E278D
:1029200092E54FF47E707E23D6E6D8F804305DE75A
:102930008842F0B40DD98B1883420AD9841832B179
:10294000224613F8014D02F8014D9942F9D1F0BC2D
:1029500070470F2A0ED80346541E002AF7D00134C0
:102960000C44013B11F8012B03F8012FA142F9D1CE
:10297000F0BC704740EA01039B073FD1A2F110036E
:1029800023F00F0401F1200727441B0901F1100473
:1029900000F1100554F8106C45F8106C54F80C6CEC
:1029A00045F80C6C54F8086C45F8086C54F8046C45
:1029B00045F8046C1034BC4205F11005EAD101332E
:1029C00012F00C0F01EB031102F00F0400EB0313E4
:1029D00017D0043C24F0030CA5089C441C1F0E4691
:1029E00056F8047B44F8047F6445F9D16C1C03EB72
:1029F000840301EB840102F00302ADE7541E034699
:102A0000ADE72246A8E700BF0148FFF7D3BC00BFEF
:102A1000FC0800200148FFF7CFBC00BFFC080020E5
:102A20002DE9F84F1746002900F0BC8007F10B058F
:102A30000C468046FFF7E8FF162D5FD810252A4682
:102A4000AF4260D854F8041C21F003069642A4F16A
:102A5000080980F28680C94BD3F808C009EB06004C
:102A6000844500F0BA80D0F804C02CF00103034480
:102A70005B68DB0700F18B802CF0030C06EB0C038A
:102A8000934280F21681CB070FD454F8083CA9EB8F
:102A9000030ADAF8043023F003018C44B44494456B
:102AA00038DA7318934280F2108139464046FFF7B6
:102AB00085FC0746E0B154F8043C23F001034B4485
:102AC000A0F10802934200F0FA80321F242A00F29B
:102AD0001D81132A00F2CE80034622461168196038
:102AE0005168596092689A602146404600F032FC75
:102AF0004046FFF78FFF3846BDE8F88F25F0070501
:102B0000002D2A469CDA0C23C8F8003000273846EE
:102B1000BDE8F88FD0E902235746D3609A6057F892
:102B2000081FDAF80C30CB60321F242A996000F2BB
:102B30000881132A40F203812368CAF808306368C9
:102B4000CAF80C301B2A00F21B8108340AF110036A
:102B500022681A6062685A60A2689A606646D14626
:102B60003C46731B0F2B22D8D9F8043003F0010325
:102B700033434E44C9F80430736843F00103736073
:102B800040462746FFF746FF3846BDE8F88FC9079D
:102B90008BD454F8083CA9EB030ADAF8041021F0AE
:102BA00003017EE7BDE8F84F1146FFF707BCD9F8EF
:102BB000042009EB050102F001024E4443F0010339
:102BC0001543C9F804504B60736843F001030831A2
:102BD0007360404600F0BEFBD2E7DCF8040020F052
:102BE000030B06EB0B0C05F1100084454DDAC90709
:102BF0003FF55BAF54F8081CA9EB010ADAF80410A2
:102C000021F003018B44B34458453FF74AAF574680
:102C1000DAF80C1057F8080F321F242AC1608860B8
:102C200000F2BC80132A40F2B7802168CAF808106D
:102C30006168CAF80C101B2A00F2C08008340AF13F
:102C400010022168116061685160A16891600AEB0F
:102C50000501ABEB050242F0010299604A60DAF827
:102C6000043003F001031D434046CAF80450FFF747
:102C7000D1FE4CE723680360636843601B2A49D890
:102C800004F1080200F1080328E709EB0501ACEBA9
:102C9000050242F0010299604A6054F8043C03F0D6
:102CA00001031D43404644F8045CFFF7B3FE27468A
:102CB0002DE7D0E902121E46CA60916051E750F834
:102CC000043C23F003031E444BE75746DAF80C108C
:102CD00057F8080F321F242AC160886027D8132AAA
:102CE00023D92168CAF808106168CAF80C101B2A99
:102CF0002FD808340AF11002216811606168516010
:102D0000A16891601E46D1463C462AE72146FFF75E
:102D10000FFEE9E6A3688360E368C360242A24D039
:102D200004F1100200F11003D8E63A46E4E7214628
:102D300038461E46D146FFF7FBFD3C4611E73B46B1
:102D400006E7214638466646D146FFF7F1FD3C4688
:102D500007E7A168CAF81010E168CAF81410242A1D
:102D600022D010340AF11802C6E7236903616369AF
:102D7000436104F1180200F11803AFE63C0400209F
:102D8000A368CAF81030E368CAF81430242A21D0A6
:102D900010340AF11803DBE63A4652E7214638467A
:102DA000FFF7C6FD154B52E72269CAF81820626981
:102DB000CAF81C2018340AF120029DE7A168CAF85D
:102DC0001010E168CAF81410242A0DD010340AF14A
:102DD000180236E72369CAF818306369CAF81C304C
:102DE00018340AF12003B3E62269CAF81820626990
:102DF000CAF81C2018340AF1200222E73C04002003
:102E000038B5074D0022044608462A60FDF7F2FD5A
:102E1000431C00D038BD2B68002BFBD0236038BD8D
:102E20001009002010B50C46B1F90E1000F026FC78
:102E3000002803DB236D0344236510BDA38923F41D
:102E40008053A38110BD00BF2DE9F041B1F90C50B2
:102E50009846EB050C46174606460BD425F48055DC
:102E6000B4F90E10A58143463A463046BDE8F0411C
:102E700000F01EB8B1F90E100223002200F06EFB24
:102E8000B4F90C50EAE700BF10B50C46B1F90E10CA
:102E900000F064FBA389421C0EBF23F4805343F46B
:102EA00080532065A38110BDB1F90E1000F0C4B8A5
:102EB00070B50C46084D114600261A4603462046BA
:102EC0002E601C46FDF788FD431C00D070BD2B68AA
:102ED000002BFBD0236070BD1009002038B5324BA9
:102EE0001B6805460C4613B19A6B002A3CD0B4F916
:102EF0000C3018079AB20CD52169A9B112F0010063
:102F000022D0606900254042A061A56011B3002075
:102F100038BDD10640D552072AD4216943F00803B1
:102F2000A3819AB20029E9D102F42070B0F5007FA4
:102F3000E4D02846214600F055FBB4F90C30216955
:102F40009AB212F00100DCD1950758BF6069A06009
:102F50000029DCD1120658BF0846D9D543F04003FA
:102F6000A3814FF0FF3038BD1846FFF73FF8BEE7AA
:102F7000216B51B104F14002914204D0284600F087
:102F8000E9F9B4F90C3000222263216921600022A2
:102F9000626023F02403C1E743F0400309222A6062
:102FA0004FF0FF30A38138BD0C0000202DE9F04721
:102FB000DFF880A00646DAF8000098460F469146F2
:102FC000FFF7F8F91A4B1B68D3F8484124B365683A
:102FD0001F2D26DC5EB9AB1C0135DAF800006560F8
:102FE00044F82370FFF7E8F90020BDE8F08704EB10
:102FF00085030121C3F88890D4F88821A9400A43A9
:10300000022EC4F88821C3F80881E4D1D4F88C31A9
:103010001943C4F88C11DEE703F5A674C3F84841E0
:10302000D5E7DAF80000FFF7C7F94FF0FF30DCE72B
:10303000303700083804002038B5074D0022044618
:1030400008462A60FDF7F4FC431C00D038BD2B680D
:10305000002BFBD0236038BD1009002070B500297B
:103060004BD00C46054610B1836B002B48D0636EE5
:10307000D80734D5B4F90C30002B3ED02146284671
:1030800000F052F8E36A064633B1E16928469847F2
:103090000028B8BF4FF0FF36A3891A063BD4216B36
:1030A00041B104F14003994202D0284600F052F9A0
:1030B00000232363616C21B1284600F04BF9002303
:1030C0006364FEF7BDFF636E0022DB07A28127D594
:1030D000A06DFFF76DF9FEF7B9FF304670BDA3890B
:1030E0009905CBD4A06DFFF765F9B4F90C30002B2E
:1030F000C4D1666E16F0010608D00026304670BDB9
:10310000FEF774FF636ED807B4D4E8E7A06DFFF74D
:1031100053F9304670BD2169284600F01BF9BEE71F
:10312000A06DFFF749F9D3E7B1F90C202DE9F04183
:103130000D461107804647D46B6842F40062002BAD
:10314000AA815DDDAC6A002C57D00023D8F800605E
:10315000C8F8003093B212F4805255D10123E969C6
:103160004046A047431C66D0AB89AC6A5F0705D5D3
:103170006A682B6B801A0BB1EB6BC01AE9690246C7
:1031800000234046A047411C40D1D8F80030002B16
:103190003CD01D2B01D0162B55D1AB892A692A6052
:1031A00023F400630022AB816A60296BC8F80060D9
:1031B00019B305F14003994202D0404600F0CAF825
:1031C00000202863BDE8F0812F69B7B193B22E6863
:1031D0002F609A070CBF6B690023F61BAB600AE0F7
:1031E0006C6AE96933463A464046A047041EA6EB9E
:1031F0000406274417DD002EF2DC0020BDE8F08134
:10320000EB6B002B9EDCF8E7286DAFE7B5F90C30CF
:103210002A692A6023F400630022AB81DB046A6020
:10322000C3D52865C1E7AB8943F04003AB814FF0BC
:10323000FF30BDE8F081D8F80030002B94D01D2B72
:1032400006D0162B04D0AB8943F04003AB81D5E701
:10325000C8F80060D1E700BF38B50C46054608B194
:10326000836BA3B1B4F90C00B8B1636EDB0701D472
:10327000810515D528462146FFF756FF636EDA070C
:10328000054602D4A3899B050ED5284638BDFEF716
:10329000ADFEB4F90C000028E7D10546284638BD3C
:1032A000A06DFFF787F8E5E7A06DFFF785F82846E2
:1032B00038BD00BFF8B5244F0C460646FFF7A4FB07
:1032C000BB685D68C4F57E610F3125F003054B19BD
:1032D00023F47F6323F00F03A3F58054B4F5805FDC
:1032E00007DB00213046FFF78BFDBB682B4498427B
:1032F00004D03046FFF78EFB0020F8BD6142304617
:10330000FFF77EFD01300DD0104AB96813682D1B00
:1033100045F0010530461B1B4D601360FFF77AFB3B
:103320000120F8BD00213046FFF76AFDBA68831A14
:103330000F2BDEDD064C0549246843F00103001B1A
:1033400053600860D5E700BF3C040020B8080020A7
:103350004408002000295ED0F8B50C460646FFF769
:1033600053FB54F8043CDFF8F0C123F00101A4F151
:1033700008004218DCF808705568974225F00305EC
:1033800000F08880DF07556033D454F8087CC01BF8
:103390000CF108048368A342394469D05719D0F866
:1033A0000CE07F68C3F80CE0CEF80830FB0740F172
:1033B000968041F0010343601160B1F5007F33D284
:1033C000CB08DCF8044001334A0901219140214334
:1033D0000CEBC3025CF83340CCF80410083AC0E9A7
:1033E00002424CF83300E0603046BDE8F840FFF799
:1033F00011BB53195B68DF070ED429440CF1080494
:103400009368A34273D0D468DC6041F00102A360EA
:1034100042604150D1E7704741F00103B1F5007FB0
:1034200044F8043C1160CBD3B1F5206F4FEA51232F
:103430004AD28B0903F13905ED0003F138025CF83B
:1034400005300CEB0504083C9C4259D05A6822F028
:1034500003028A4202D99B689C42F7D1DC68C0E92A
:103460000234A060D8603046BDE8F840FFF7D2BA19
:1034700053195B68DB0766D4D2E90223294441F083
:103480000104D3609A60446041503046BDE8F84082
:10349000FFF7C0BADB07294407D454F8083CC01A28
:1034A0001944D0E90223D3609A60294B1B6841F08C
:1034B00001028B424260CCF8080095D8254B30467B
:1034C0001968FFF7F7FE8FE7142B0AD9542B21D880
:1034D0000B0B03F16F05ED0003F16E02AFE729441A
:1034E0008EE703F15C05ED0003F15B02A7E741F015
:1034F0000103CCE90400C0E902444360415073E792
:10350000DCF804109210012505FA02F20A43CCF807
:103510000420A4E7B3F5AA7F06D8CB0B03F1780506
:10352000ED0003F177028AE740F25452934206D845
:103530008B0C03F17D05ED0003F17C027FE74FF476
:103540007E757E227BE741F00103436011604BE70B
:1035500048080020E80800203C04002070B50C4614
:10356000084D114600261A46034620462E601C468A
:10357000FDF768FA431C00D070BD2B68002BFBD010
:10358000236070BD1009002070B50C46B1F90E1013
:10359000002996B015461E4614DB6A4600F084F8F2
:1035A00000280FDB019A02F47042A2F50052B2FA31
:1035B00082F252094FF480634FF4006032602B6056
:1035C00016B070BDA189002311F08000336004D0D3
:1035D000402218462A6016B070BD4FF480632B60FD
:1035E00016B070BD70B58B899D0782B00C4607D5AB
:1035F00001F143030122C1E904320B6002B070BD46
:1036000001AB6A460646FFF7BFFF00990546304604
:10361000FEF7D4FEB4F90C30024670B11648F063E0
:1036200001990098226043F08003C4E90420A3813B
:1036300089B92B43A38102B070BD9A05DED423F073
:10364000030304F1430243F002030121C4E904210E
:10365000A3812260D2E7B4F90E10304600F03AF8A8
:1036600010B9B4F90C30E4E7A28922F0030242F069
:10367000010213B2DDE700BFE11F000870B50C4680
:10368000084D114600261A46034620462E601C4669
:10369000FDF792F9431C00D070BD2B68002BFBD0C6
:1036A000236070BD1009002038B50C46084D034654
:1036B0001146204600221C462A60FDF7BCF9431C37
:1036C00000D038BD2B68002BFBD0236038BD00BF75
:1036D0001009002038B5074D0022044608462A602C
:1036E000FDF7AEF9431C00D038BD2B68002BFBD092
:1036F000236038BD10090020F8B500BFF8BC08BC35
:103700009E467047F8B500BFF8BC08BC9E4670479F
:1037100068617070790D000000000000000000007A
:103720000102030406070809000000000102030467
:08373000100000200A00000057
:08373800F8CAFF7F0100000048
:08374000711F0008E5010008FB
:04374800C1010008B3
:10374C000024F40001000000100000001000002014
:10375C0000000000FC02002064030020CC030020C9
:10376C00000000000000000000000000000000004D
:10377C00000000000000000000000000000000003D
:10378C00000000000000000000000000000000002D
:10379C00000000000000000000000000000000001D
:1037AC00000000000000000000000000000000000D
:1037BC0000000000000000000000000000000000FD
:1037CC0000000000000000000000000000000000ED
:1037DC0000000000000000000000000000000000DD
:1037EC0000000000000000000000000000000000CD
:1037FC0000000000000000000100000000000000BC
:10380C000E33CDAB34126DE6ECDE05000B00000080
:10381C00000000000000000000000000000000009C
:10382C00000000000000000000000000000000008C
:10383C00000000000000000000000000000000007C
:10384C00000000000000000000000000000000006C
:103B7C000000000000000000EC0800200000000025
:103B8C00000000003C0400203C0400204404002001
:103B9C00440400204C0400204C0400205404002059
:103BAC00540400205C0400205C0400206404002009
:103BBC00640400206C0400206C04002074040020B9
:103BCC00740400207C0400207C0400208404002069
:103BDC00840400208C0400208C0400209404002019
:103BEC00940400209C0400209C040020A4040020C9
:103BFC00A4040020AC040020AC040020B404002079
:103C0C00B4040020BC040020BC040020C404002028
:103C1C00C4040020CC040020CC040020D4040020D8
:103C2C00D4040020DC040020DC040020E404002088
:103C3C00E4040020EC040020EC040020F404002038
:103C4C00F4040020FC040020FC04002004050020E7
:103C5C00040500200C0500200C0500201405002094
:103C6C00140500201C0500201C0500202405002044
:103C7C00240500202C0500202C05002034050020F4
:103C8C00340500203C0500203C05002044050020A4
:103C9C00440500204C0500204C0500205405002054
:103CAC00540500205C0500205C0500206405002004
:103CBC00640500206C0500206C05002074050020B4
:103CCC00740500207C0500207C0500208405002064
:103CDC00840500208C0500208C0500209405002014
:103CEC00940500209C0500209C050020A4050020C4
:103CFC00A4050020AC050020AC050020B405002074
:103D0C00B4050020BC050020BC050020C405002023
:103D1C00C4050020CC050020CC050020D4050020D3
:103D2C00D4050020DC050020DC050020E405002083
:103D3C00E4050020EC050020EC050020F405002033
:103D4C00F4050020FC050020FC05002004060020E2
:103D5C00040600200C0600200C060020140600208F
:103D6C00140600201C0600201C060020240600203F
:103D7C00240600202C0600202C06002034060020EF
:103D8C00340600203C0600203C060020440600209F
:103D9C00440600204C0600204C060020540600204F
:103DAC00540600205C0600205C06002064060020FF
:103DBC00640600206C0600206C06002074060020AF
:103DCC00740600207C0600207C060020840600205F
:103DDC00840600208C0600208C060020940600200F
:103DEC00940600209C0600209C060020A4060020BF
:103DFC00A4060020AC060020AC060020B40600206F
:103E0C00B4060020BC060020BC060020C40600201E
:103E1C00C4060020CC060020CC060020D4060020CE
:103E2C00D4060020DC060020DC060020E40600207E
:103E3C00E4060020EC060020EC060020F40600202E
:103E4C00F4060020FC060020FC06002004070020DD
:103E5C00040700200C0700200C070020140700208A
:103E6C00140700201C0700201C070020240700203A
:103E7C00240700202C0700202C07002034070020EA
:103E8C00340700203C0700203C070020440700209A
:103E9C00440700204C0700204C070020540700204A
:103EAC00540700205C0700205C07002064070020FA
:103EBC00640700206C0700206C07002074070020AA
:103ECC00740700207C0700207C070020840700205A
:103EDC00840700208C0700208C070020940700200A
:103EEC00940700209C0700209C070020A4070020BA
:103EFC00A4070020AC070020AC070020B40700206A
:103F0C00B4070020BC070020BC070020C407002019
:103F1C00C4070020CC070020CC070020D4070020C9
:103F2C00D4070020DC070020DC070020E407002079
:103F3C00E4070020EC070020EC070020F407002029
:103F4C00F4070020FC070020FC07002004080020D8
:103F5C00040800200C0800200C0800201408002085
:103F6C00140800201C0800201C0800202408002035
:103F7C00240800202C0800202C08002034080020E5
:0C3F8C0034080020FFFFFFFF00000200CF
:0400000508001D7D55
:00000001FF
