:020000040800F2
:1000000000000220B52F00084D1300084F13000810
:100010005113000853130008551300080000000096
:10002000000000000000000000000000571300085E
:1000300059130008000000005B1300085D1300085E
:1000400005300008053000080530000805300008BC
:1000500005300008053000080530000805300008AC
:10006000053000080530000805300008053000089C
:10007000053000080530000805300008053000088C
:10008000053000080530000805300008053000087C
:10009000053000080530000805300008053000086C
:1000A000053000080530000805300008053000085C
:1000B000053000080530000805300008053000084C
:1000C000053000080530000805300008053000083C
:1000D00005300008651300080530000805300008E9
:1000E000053000080530000805300008053000081C
:1000F000053000080530000805300008053000080C
:1001000005300008053000087513000805300008A8
:1001100005300008053000080530000805300008EB
:1001200005300008053000080530000805300008DB
:1001300005300008053000080530000805300008CB
:1001400005300008053000080530000805300008BB
:1001500005300008053000080530000805300008AB
:10016000053000080530000805300008053000089B
:1001700005300008053000080530000800000000C8
:080180000530000805300008FD
:1001C00010B5054C237833B9044B13B10448AFF391
:1001D00000800123237010BDB8090020000000003A
:1001E0000C7F000808B5034B1BB103490348AFF36C
:1001F000008008BD00000000BC0900200C7F000842
:1002000053B94AB9002908BF00281CBF4FF0FF317D
:100210004FF0FF3000F06CB9ADF1080C6DE904CE81
:1002200000F006F8DDF804E0DDE9022304B07047D1
:100230002DE9F047089E0D4604468E46002B40F0FF
:1002400082808A42174646D9B2FA82F24AB1C2F196
:10025000200105FA02F320FA01F1974041EA030E6A
:1002600094404FEA1748230CBEFBF8FCB9B208FBD8
:100270001CEE43EA0E430CFB01F098420AD9FB182E
:100280000CF1FF3580F01681984240F21381ACF1F9
:10029000020C3B441B1AA4B2B3FBF8F008FB10336A
:1002A00044EA034400FB01F1A14209D93C1900F1E1
:1002B000FF3380F00181A14240F2FE8002383C44CD
:1002C000641A40EA0C4000211EB1D4400023C6E964
:1002D0000043BDE8F08702B9FFDEB2FA82F2002ADD
:1002E0004FD1CB1B4FEA174E1FFA87F80121B3FB02
:1002F000FEFC250C0EFB1C3345EA034508FB0CF302
:10030000AB4207D97D190CF1FF3002D2AB4200F2AB
:10031000E7808446ED1AA3B2B5FBFEF00EFB105544
:1003200043EA054408FB00F8A04507D93C1900F151
:10033000FF3302D2A04500F2D7801846A4EB080490
:1003400040EA0C40C0E78B4208D9002E00F0AF8095
:100350000021C6E900050846BDE8F087B3FA83F13D
:1003600000294BD1AB4202D3824200F2B780841AFB
:1003700065EB030301209E46002EAAD0C6E9004E7D
:10038000A7E7C2F1200C01FA02F3974020FA0CF023
:100390004FEA174E21FA0CFC1843BCFBFEF1050C8A
:1003A0000EFB11CC1FFA87F845EA0C4501FB08F358
:1003B000AB4204FA02F409D97D1901F1FF3C80F047
:1003C0008B80AB4240F2888002393D44EB1A85B203
:1003D000B3FBFEF00EFB103345EA034500FB08F3C8
:1003E000AB4207D97D1900F1FF3C71D2AB426FD906
:1003F00002383D44EB1A40EA014178E7C1F1200C94
:100400008B4022FA0CF71F4320FA0CF405FA01F393
:100410004FEA174E25FA0CF51C43230CB5FBFEF9E9
:100420001FFA87F80EFB195543EA054509FB08FA40
:10043000AA4502FA01F200FA01F308D97D1909F17F
:10044000FF3047D2AA4545D9A9F102093D44A5EBA1
:100450000A05A4B2B5FBFEF00EFB105544EA0544B4
:1004600000FB08F8A04507D93C1900F1FF352DD253
:10047000A0452BD902383C4440EA0940A4EB0804CB
:10048000A0FB02894C45C6464D4619D316D05EB135
:10049000B3EB0E0264EB050404FA0CFCCA404CEA10
:1004A0000202CC40C6E900240021BDE8F0873146B5
:1004B00030460EE7AC46EDE6184601E74345E6D286
:1004C000B8EB020E69EB07050138E0E72846D3E7F1
:1004D00060468FE78146BAE7614677E708464BE713
:1004E000ACF1020C3D4415E702383C4426E700BF5E
:1004F000704700BF00000000000000000000000086
:1005000001F0FF01102A2BDB10F0070F08D010F8C4
:10051000013B013A8B422DD010F0070F42B3F6D1C8
:10052000F0B441EA012141EA014122F007047FF0E1
:1005300000070023F0E80256083C85EA010586EA38
:10054000010685FA47F5A3FA87F586FA47F6A5FA74
:1005500087F68EB9EED1F0BC01F0FF0102F0070280
:1005600032B110F8013B013A83EA010313B1F8D12B
:100570000020704701387047002D06BF354603380C
:10058000073815F0010F07D1013015F4807F02BF45
:10059000013015F4C03F0130F0BC0138704700BF96
:1005A000844641EA000313F003036DD1403A41D37E
:1005B00051F8043B40F8043B51F8043B40F8043B3D
:1005C00051F8043B40F8043B51F8043B40F8043B2D
:1005D00051F8043B40F8043B51F8043B40F8043B1D
:1005E00051F8043B40F8043B51F8043B40F8043B0D
:1005F00051F8043B40F8043B51F8043B40F8043BFD
:1006000051F8043B40F8043B51F8043B40F8043BEC
:1006100051F8043B40F8043B51F8043B40F8043BDC
:1006200051F8043B40F8043B51F8043B40F8043BCC
:10063000403ABDD2303211D351F8043B40F8043B6C
:1006400051F8043B40F8043B51F8043B40F8043BAC
:1006500051F8043B40F8043B103AEDD20C3205D37C
:1006600051F8043B40F8043B043AF9D2043208D074
:10067000D2071CBF11F8013B00F8013B01D30B88E6
:1006800003806046704700BF082A13D38B078DD0C4
:1006900010F003038AD0C3F10403D21ADB071CBF96
:1006A00011F8013B00F8013B80D331F8023B20F800
:1006B000023B7BE7043AD9D3013A11F8013B00F839
:1006C000013BF9D20B7803704B7843708B788370C1
:1006D00060467047000000000000000000000000BD
:1006E000000000000000000000000000000000000A
:1006F00000000000000000000000000000000000FA
:1007000090F800F06DE9024520F007016FF0000C51
:1007100010F0070491F820F040F049804FF00004F9
:100720006FF00700D1E9002391F840F000F10800D4
:1007300082FA4CF2A4FA8CF283FA4CF3A2FA8CF30C
:100740004BBBD1E9022382FA4CF200F10800A4FA73
:100750008CF283FA4CF3A2FA8CF3E3B9D1E90423C7
:1007600082FA4CF200F10800A4FA8CF283FA4CF3FE
:10077000A2FA8CF37BB9D1E9062301F1200182FAB8
:100780004CF200F10800A4FA8CF283FA4CF3A2FABE
:100790008CF3002BC6D0002A04BF04301A4612BACC
:1007A000B2FA82F2FDE8024500EBD2007047D1E9CF
:1007B000002304F00305C4F100004FEAC50514F05E
:1007C000040F91F840F00CFA05F562EA05021CBF2F
:1007D00063EA050362464FF00004A9E781F0004197
:1007E00002E000BF83F0004330B54FEA41044FEA16
:1007F000430594EA050F08BF90EA020F1FBF54EAB1
:10080000000C55EA020C7FEA645C7FEA655C00F04C
:10081000E2804FEA5454D4EB5555B8BF6D420CDD1D
:100820002C4480EA020281EA030382EA000083EAA0
:10083000010180EA020281EA0303362D88BF30BD40
:1008400011F0004F4FEA01314FF4801C4CEA113196
:1008500002D0404261EB410113F0004F4FEA0333F5
:100860004CEA133302D0524263EB430394EA050F80
:1008700000F0A780A4F10104D5F1200E0DDB02FAEF
:100880000EFC22FA05F2801841F1000103FA0EF283
:10089000801843FA05F359410EE0A5F120050EF149
:1008A000200E012A03FA0EFC28BF4CF0020C43FA7A
:1008B00005F3C01851EBE37101F0004507D54FF087
:1008C000000EDCF1000C7EEB00006EEB0101B1F5D7
:1008D000801F1BD3B1F5001F0CD349085FEA30001D
:1008E0004FEA3C0C04F101044FEA445212F5800F28
:1008F00080F09A80BCF1004F08BF5FEA500C50F1C5
:10090000000041EB045141EA050130BD5FEA4C0CA7
:10091000404141EB0101013C28BFB1F5801FE9D204
:1009200091F0000F04BF01460020B1FA81F308BF27
:100930002033A3F10B03B3F120020CDA0C3208DDF3
:1009400002F1140CC2F10C0201FA0CF021FA02F1CE
:100950000CE002F11402D8BFC2F1200C01FA02F13E
:1009600020FA0CFCDCBF41EA0C019040E41AA2BF63
:1009700001EB0451294330BD6FEA04041F3C1CDA2B
:100980000C340EDC04F11404C4F1200220FA04F04B
:1009900001FA02F340EA030021FA04F345EA0301F5
:1009A00030BDC4F10C04C4F1200220FA02F001FAB7
:1009B00004F340EA0300294630BD21FA04F0294639
:1009C00030BD94F0000F83F4801306BF81F48011D2
:1009D0000134013D4EE77FEA645C18BF7FEA655C45
:1009E00029D094EA050F08BF90EA020F05D054EA17
:1009F000000C04BF1946104630BD91EA030F1EBF1C
:100A00000021002030BD5FEA545C05D1400049411F
:100A100028BF41F0004130BD14F580043CBF01F512
:100A2000801130BD01F0004545F0FE4141F47001F8
:100A30004FF0000030BD7FEA645C1ABF19461046D3
:100A40007FEA655C1CBF0B46024650EA013406BFD4
:100A500052EA033591EA030F41F4002130BD00BF93
:100A600090F0000F04BF0021704730B54FF4806450
:100A700004F132044FF000054FF0000150E700BFD1
:100A800090F0000F04BF0021704730B54FF4806430
:100A900004F1320410F0004548BF40424FF000011D
:100AA0003EE700BF42004FEAE2014FEA31014FEA60
:100AB00002701FBF12F07F4393F07F4F81F06051AF
:100AC000704732F07F4208BF704793F07F4F04BFFA
:100AD00041F40021704730B54FF4607401F00045D7
:100AE00021F000411CE700BF50EA010208BF704737
:100AF00030B54FF000050AE050EA010208BF704728
:100B000030B511F0004502D5404261EB41014FF490
:100B1000806404F132045FEA915C3FF4D8AE4FF098
:100B200003025FEADC0C18BF03325FEADC0C18BF7B
:100B3000033202EBDC02C2F1200300FA03FC20FACC
:100B400002F001FA03FE40EA0E0021FA02F1144419
:100B5000BDE600BF70B54FF0FF0C4CF4E06C1CEA32
:100B600011541DBF1CEA135594EA0C0F95EA0C0FA3
:100B700000F0DEF82C4481EA030621EA4C5123EA16
:100B80004C5350EA013518BF52EA033541F4801145
:100B900043F4801338D0A0FB02CE4FF00005E1FBF8
:100BA00002E506F00042E0FB03E54FF00006E1FB42
:100BB00003569CF0000F18BF4EF0010EA4F1FF0485
:100BC000B6F5007F64F5407404D25FEA4E0E6D41C5
:100BD00046EB060642EAC62141EA55514FEAC520D6
:100BE00040EA5E504FEACE2EB4F1FD0C88BFBCF552
:100BF000E06F1ED8BEF1004F08BF5FEA500E50F103
:100C0000000041EB045170BD06F0004646EA0101C8
:100C100040EA020081EA0301B4EB5C04C2BFD4EBFA
:100C20000C0541EA045170BD41F480114FF0000EF3
:100C3000013C00F3AB8014F1360FDEBF002001F061
:100C4000004170BDC4F10004203C35DA0C341BDCDB
:100C500004F11404C4F1200500FA05F320FA04F0AD
:100C600001FA05F240EA020001F0004221F00041E1
:100C700010EBD37021FA04F642EB06015EEA430E54
:100C800008BF20EAD37070BDC4F10C04C4F1200584
:100C900000FA04F320FA05F001FA04F240EA020037
:100CA00001F0004110EBD37041F100015EEA430E08
:100CB00008BF20EAD37070BDC4F1200500FA05F228
:100CC0004EEA020E20FA04F301FA05F243EA0203A7
:100CD00021FA04F001F0004121FA04F220EA0200B6
:100CE00000EBD3705EEA430E08BF20EAD37070BDFC
:100CF00094F0000F0FD101F00046400041EB0101DC
:100D000011F4801F08BF013CF7D041EA060195F0BD
:100D1000000F18BF704703F00046520043EB030377
:100D200013F4801F08BF013DF7D043EA0603704764
:100D300094EA0C0F0CEA135518BF95EA0C0F0CD06F
:100D400050EA410618BF52EA4306D1D181EA0301B5
:100D500001F000414FF0000070BD50EA410606BFAF
:100D60001046194652EA430619D094EA0C0F02D1F4
:100D700050EA013613D195EA0C0F05D152EA033639
:100D80001CBF104619460AD181EA030101F0004157
:100D900041F0FE4141F470014FF0000070BD41F0A0
:100DA000FE4141F4780170BD70B54FF0FF0C4CF47A
:100DB000E06C1CEA11541DBF1CEA135594EA0C0F99
:100DC00095EA0C0F00F0A7F8A4EB050481EA030EE6
:100DD00052EA03354FEA013100F088804FEA0333CD
:100DE0004FF0805545EA131343EA12634FEA02229B
:100DF00045EA111545EA10654FEA00260EF000415C
:100E00009D4208BF964244F1FD0404F5407402D2AD
:100E10005B084FEA3202B61A65EB03055B084FEA3E
:100E200032024FF480104FF4002CB6EB020E75EB3B
:100E3000030E22BFB61A754640EA0C005B084FEA63
:100E40003202B6EB020E75EB030E22BFB61A7546E0
:100E500040EA5C005B084FEA3202B6EB020E75EB2B
:100E6000030E22BFB61A754640EA9C005B084FEAA3
:100E70003202B6EB020E75EB030E22BFB61A7546B0
:100E800040EADC0055EA060E18D04FEA051545EA9F
:100E900016754FEA06164FEAC30343EA52734FEA48
:100EA000C2025FEA1C1CC0D111F4801F0BD141EAC1
:100EB00000014FF000004FF0004CB6E711F4801F26
:100EC00004BF01430020B4F1FD0C88BFBCF5E06F06
:100ED0003FF6AFAEB5EB030C04BFB6EB020C5FEA16
:100EE000500C50F1000041EB045170BD0EF0004E6B
:100EF0004EEA113114EB5C04C2BFD4EB0C0541EA9D
:100F0000045170BD41F480114FF0000E013C90E699
:100F100045EA060E8DE60CEA135594EA0C0F08BF5D
:100F200095EA0C0F3FF43BAF94EA0C0F0AD150EA5C
:100F300001347FF434AF95EA0C0F7FF425AF1046EF
:100F400019462CE795EA0C0F06D152EA03353FF417
:100F5000FDAE1046194622E750EA410618BF52EA94
:100F600043067FF4C5AE50EA41047FF40DAF52EA68
:100F700043057FF4EBAE12E74FF0FF3C06E000BF05
:100F80004FF0010C02E000BF4FF0010C4DF804CD12
:100F90004FEA410C7FEA6C5C4FEA430C18BF7FEAD2
:100FA0006C5C1BD001B050EA410C0CBF52EA430C00
:100FB00091EA030F02BF90EA020F0020704710F180
:100FC000000F91EA030F58BF994208BF90422CBF0F
:100FD000D8176FEAE37040F0010070474FEA410C08
:100FE0007FEA6C5C02D150EA013C07D14FEA430C26
:100FF0007FEA6C5CD6D152EA033CD3D05DF8040B97
:10100000704700BF8446104662468C4619466346C8
:1010100000E000BF01B5FFF7B7FF002848BF10F19F
:10102000000F01BD4DF808EDFFF7F4FF0CBF0120E4
:1010300000205DF808FB00BF4DF808EDFFF7EAFF60
:1010400034BF012000205DF808FB00BF4DF808ED1B
:10105000FFF7E0FF94BF012000205DF808FB00BF10
:101060004DF808EDFFF7CEFF94BF012000205DF89A
:1010700008FB00BF4DF808EDFFF7C4FF34BF0120A7
:1010800000205DF808FB00BF4FEA410C7FEA6C5C72
:1010900002D150EA013C0AD14FEA430C7FEA6C5C72
:1010A00002D152EA033C02D14FF0000070474FF0EA
:1010B000010070474FEA410212F5001215D211D516
:1010C0006FF47873B3EB625212D94FEAC12343F045
:1010D000004343EA505311F0004F23FA02F018BFC7
:1010E000404270474FF00000704750EA013005D190
:1010F00011F0004008BF6FF0004070474FF0000053
:10110000704700BF30B58BB0002405940694079457
:10111000089409940194234B1A6B42F020021A633D
:101120001A6B02F020020192019A02941A6B42F0AB
:1011300080021A631A6B02F080020292029A0394F0
:101140001A6B42F001021A631A6B02F00102039259
:10115000039A04941A6B42F002021A631B6B03F0A9
:1011600002030493049B104D22464FF4C0612846AD
:1011700000F0B2FC4FF4C06305930123069307937C
:10118000089405A9284600F0BDFB4FF48053059351
:1011900006940223079305A9044800F0B3FB0BB0A3
:1011A00030BD00BF0038024000140240000402407D
:1011B00000B583B001904FF6FF73012201A90348E7
:1011C00001F08BFC019803B05DF804FB280A0020B5
:1011D00072B6FEE700B595B03022002108A801F0F4
:1011E0003DFF002303930493059306930793019314
:1011F000214A116C41F080511164126C02F080524E
:101200000192019A02931D4B1A6842F480421A60BF
:101210001B6803F480430293029B012308934FF45D
:101220008033099302230E934FF480020F92082219
:1012300010924FF4A872119212930423139308A8EA
:1012400000F050FC98B90F2303930223049300236A
:1012500005934FF4A05306934FF480530793052151
:1012600003A800F0A1FE20B915B05DF804FBFFF75C
:10127000AFFFFFF7ADFF00BF003802400070004035
:1012800080B582B000220023CDE9002300F046FAA9
:10129000FFF7A0FFFFF736FF00F0A2F900F0BCF85F
:1012A000174B1A7893F90030002BF9DA02F03F025D
:1012B000D2B20023CDE90023DDE90001CE07C30748
:1012C00046EA50021B1A62EB0102DE1842EB0207EB
:1012D000341847EB0105CDE90045DDE90023094954
:1012E0000968521843F10003CDE90023DDE900232A
:1012F000054801F003FF024B00221A70D0E700BF3F
:10130000200A0020240A0020287F000800B583B0AE
:10131000002100910C4B5A6C42F480425A645A6C82
:1013200002F480420092009A01911A6C42F08052BD
:101330001A641B6C03F080530193019B052000F09D
:1013400019FA03B05DF804FB00380240FEE7FEE73F
:10135000FEE7FEE7FEE770477047704708B500F00C
:10136000F7F908BD08B5024801F0ACFC08BD00BFA4
:10137000280A002008B5024800F055FF08BD00BF4C
:10138000D809002070B50C4616460025B54207DA8C
:10139000AFF30080214601F8010B01350C46F5E75B
:1013A000304670BD70B50C4616460025B54205DACC
:1013B00014F8010BFFF7FCFE0135F7E7304670BD6E
:1013C00008B503460B4A126842B10A4A1068034442
:1013D0006A46934206D8074A136008BD054A064983
:1013E0001160F2E701F010FE0C2303604FF0FF30B4
:1013F000F3E700BFD4090020D00A00204FF0FF30EF
:1014000070474FF400534B60002070470120704735
:10141000002070477047000010B586B00023049389
:10142000059300930193029303931B481B4A0260A8
:101430005322426083604FF0FF32C2600361802319
:10144000836101F011F8F0B900230493059304A916
:10145000114801F09FF9C8B90022009201230193BD
:101460000292039369460C4801F066F888B90A4C69
:101470000021204601F0D4F82268D36843F001032C
:10148000D36006B010BDFFF7A3FEDDE7FFF7A0FEB7
:10149000E2E7FFF79DFEEAE7D8090020000C0040D4
:1014A00010B588B000230393049305930693079324
:1014B0000268184B9A4201D008B010BD002101917A
:1014C00003F50B331A6C42F008021A641A6C02F02E
:1014D00008020192019A02911A6B42F001021A630A
:1014E0001B6B03F001030293029B0123039302246D
:1014F000049405940694079403A9074800F002FA9F
:1015000003222146322000F047F9322000F078F91A
:10151000D2E700BF000C00400000024010B50446B6
:101520001D4801F0EBFD1D4B1A7893F90030002B9C
:101530001EDB12F0400F1CD10022194B1A60174B12
:101540004021197021680B6843F001030B60236888
:101550005A622268136A23F00A0313622268136A2C
:1015600043F0020313622268136843F0010313601F
:1015700010BD62F07F02094B1A700021204600F076
:1015800036FE074B18602268136A23F00A031362C1
:1015900023681A6A1A62EBE7547F0008200A0020C9
:1015A000240A00200C4B1A7893F90030002B09DB39
:1015B00012F0400F06D002F03F033F2B03D0013260
:1015C000054B1A707047044B80221A70034B4FF082
:1015D000FF321A60704700BF200A0020240A002052
:1015E00008B50D480D4B03604FF4E1334360002311
:1015F0008360C36003610C2242618361C36101F0B7
:101600003DFA28B901220649034801F0B6FC08BD9D
:10161000FFF7DEFDF6E700BF280A002000100140BA
:101620006C0A002010B588B000230393049305933F
:1016300006930793026803F1804303F588339A42C7
:1016400001D008B010BD0022019203F59433596C0B
:1016500041F010015964596C01F010010191019998
:101660000292196B41F0010119631B6B03F0010336
:101670000293029B4FF4C0630393022404940592E7
:10168000032306930723079303A9064800F03AF9BA
:1016900022462146252000F07FF8252000F0B0F8F2
:1016A000CFE700BF0000024038B5074D074C4FF4AC
:1016B0007A7301222946204601F00FFA01222946B9
:1016C000204601F05AFC38BD6C0A0020280A002090
:1016D00010B504460E4B18784FF47A73B3FBF0F351
:1016E0000C4A1068B0FBF3F000F098F868B90F2CC2
:1016F00001D901200AE0002221464FF0FF3000F01E
:101700004BF8054B1C60002000E0012010BD00BF1D
:1017100004000020000000200800002008B50B4B4A
:101720001A6842F400721A601A6842F480621A6001
:101730001A6842F480721A60032000F01BF800203F
:10174000FFF7C6FFFFF7E2FD002008BD003C0240A6
:10175000034A1168034B1B780B441360704700BFAA
:10176000700A002004000020014B1868704700BF79
:10177000700A0020074AD36823F4E0631B041B0CA3
:10178000000200F4E060034343F0BF6343F400331E
:10179000D360704700ED00E030B4174BDB68C3F353
:1017A0000223C3F10704042C28BF04241D1D062DA9
:1017B00018D9033B4FF0FF3505FA04F421EA040180
:1017C000994005FA03F322EA0303194300280BDBCF
:1017D0000901C9B200F1604000F5614080F80013D2
:1017E00030BC70470023E5E700F00F000901C9B2E3
:1017F000024B1954F4E700BF00ED00E014ED00E0E7
:10180000002807DB00F01F02400901239340024A31
:1018100042F82030704700BF00E100E00138B0F12D
:10182000807F0AD2064B5860064AF02182F82310C6
:101830000020986007221A6070470120704700BF9F
:1018400010E000E000ED00E070B50446866DFFF7A3
:101850008BFF94F83530DBB2022B06D08023636512
:10186000002384F83430012070BD054622681368D7
:1018700023F0160313602268536923F08003536139
:10188000236CE3B12268136823F008031360226815
:10189000136823F00103136023681B6813F0010F22
:1018A00011D0FFF761FF431B052BF5D9202363659A
:1018B000032084F83500002384F83430D4E7A36C87
:1018C000002BDFD1E3E7E26D3F239340B3600123B8
:1018D00084F83530002084F83400C5E790F83530BE
:1018E000DBB2022B03D08023436501207047052320
:1018F00080F835300268136823F00103136000207C
:101900007047000000230F2B00F2DD80F0B482B09E
:101910005DE086685F000324BC4026EA0406CC68CC
:10192000BC4034438460466826EA02064C68C4F32F
:1019300000129A403243426057E0DC08083450F805
:10194000247003F0070296000F22B24027EA020734
:101950000A69B2403A4340F824205AE0072200E0E6
:101960000022B2403A430234574E46F82420574AE8
:101970001468EA4324EA05064F6817F4803F01D053
:1019800045EA0406514C2660646802EA04064F6882
:1019900017F4003F01D045EA04064C4C6660A46889
:1019A00002EA04064F6817F4801F01D045EA0406D6
:1019B000464CA660E46822404E6816F4001F01D031
:1019C00045EA0402414CE26001330F2B78D8012232
:1019D0009A400C6804EA020532EA0404F4D14C6827
:1019E00004F00304013C012C93D94A6802F003027D
:1019F000032A09D0C4685E000322B24024EA02042C
:101A00008A68B2402243C2604A6802F00302022A96
:101A100093D004685E000322B24024EA02044A68BC
:101A200002F00302B240224302604A6812F4403FCF
:101A3000CAD000220192264A546C44F48044546473
:101A4000526C02F480420192019A9C08A61C1E4A24
:101A500052F8267003F0030296000F22B24027EAE4
:101A600002071C4A90423FF47BAF02F5806290422D
:101A70001AD002F58062904218D002F5806290423E
:101A800016D002F58062904214D002F58062904236
:101A900012D002F58062904210D002F5806290422E
:101AA0003FF45CAF08225CE701225AE7022258E7C4
:101AB000032256E7042254E7052252E7062250E7A4
:101AC00002B0F0BC7047704700380140003C014054
:101AD00000380240000002400AB1816170470904E9
:101AE00081617047002800F0DF8170B582B0044644
:101AF000036813F0010F3BD0A64B9B6803F00C0367
:101B0000042B2CD0A34B9B6803F00C03082B21D093
:101B10006368B3F5803F4FD0B3F5A02F52D09D4BF3
:101B20001A6822F480321A601A6822F480221A603D
:101B30006368002B50D0FFF717FE0546954B1B68D6
:101B400013F4003F14D1FFF70FFE401B6428F5D9B2
:101B50000320B0E18F4B5B6813F4800FD8D08D4B1E
:101B60001B6813F4003F03D06368002B00F09E81D4
:101B7000236813F0020F54D0864B9B6813F00C0FB0
:101B80003ED0844B9B6803F00C03082B33D0E368F2
:101B9000002B67D0804B01221A60FFF7E5FD054658
:101BA0007C4B1B6813F0020F53D1FFF7DDFD401B88
:101BB0000228F5D903207EE1764A136843F4803386
:101BC0001360B5E7734B1A6842F480221A601A68F2
:101BD00042F480321A60ABE7FFF7C6FD05466D4B55
:101BE0001B6813F4003FC3D0FFF7BEFD401B642801
:101BF000F5D903205FE1674B5B6813F4800FC6D112
:101C0000644B1B6813F0020F03D0E368012B40F014
:101C10004F81604A136823F0F803216943EAC10346
:101C20001360236813F0080F40D0636963B35B4B04
:101C300001221A60FFF798FD0546564B5B6F13F0C3
:101C4000020F33D1FFF790FD401B0228F5D9032086
:101C500031E1504A136823F0F803216943EAC103D4
:101C60001360DEE74C4B00221A60FFF77DFD05464E
:101C7000484B1B6813F0020FD3D0FFF775FD401BD4
:101C80000228F5D9032016E1444B00221A60FFF721
:101C90006BFD05463F4B5B6F13F0020F06D0FFF75D
:101CA00063FD401B0228F5D9032004E1236813F0EB
:101CB000040F78D0374B1B6C13F0805F0DD10023DD
:101CC0000193344B1A6C42F080521A641B6C03F07F
:101CD00080530193019B012500E00025304B1B68D8
:101CE00013F4807F21D0A368012B32D0052B36D08E
:101CF000284B1A6F22F001021A671A6F22F00402B1
:101D00001A67A368002B34D0FFF72EFD0646214B3F
:101D10001B6F13F0020F45D1FFF726FD801B41F228
:101D200088339842F3D90320C5E01D4A136843F471
:101D300080731360FFF718FD0646194B1B6813F4F8
:101D4000807FD0D1FFF710FD801B0228F5D903203A
:101D5000B1E0104A136F43F001031367D1E70D4B55
:101D60001A6F42F004021A671A6F42F001021A67F2
:101D7000C7E7FFF7F9FC0646064B1B6F13F0020F8F
:101D800010D0FFF7F1FC801B41F288339842F3D961
:101D9000032090E00038024000004742800E474296
:101DA00000700040EDB9A369002B00F08380494A20
:101DB000926802F00C02082A51D0022B17D0464B31
:101DC00000221A60FFF7D0FC0446424B1B6813F058
:101DD000007F42D0FFF7C8FC001B0228F5D9032082
:101DE00069E03C4A136C23F080531364DBE73A4B01
:101DF00000221A60FFF7B8FC0546364B1B6813F04B
:101E0000007F06D0FFF7B0FC401B0228F5D9032065
:101E100051E0E369226A1343626A43EA8213A26AC9
:101E20005208013A43EA0243E26A43EA0263294A5A
:101E30005360294B01221A60FFF796FC0446254B9C
:101E40001B6813F0007F06D1FFF78EFC001B0228F1
:101E5000F5D903202FE000202DE000202BE0012BFE
:101E60002BD01C4B5B6803F48001E269914226D1C0
:101E700003F03F02216A8A4223D1616A47F6C072A9
:101E80001A40B2EB811F1ED103F44031A26A5208FE
:101E9000013AB1EB024F18D103F07063E26AB3EB81
:101EA000026F14D1002006E001207047012002E0FB
:101EB000012000E0002002B070BD0120FBE70120FE
:101EC000F9E70120F7E70120F5E70120F3E701201A
:101ED000F1E700BF0038024060004742F8B52F4BE1
:101EE0009B6803F00C03042B53D0082B53D12B4BCE
:101EF0005A6802F03F025B6813F4800F28D0274B2A
:101F00005B68C3F3881358010021C01A61F1000116
:101F10008E0146EA906687013C1A66EB0105E900EE
:101F200041EA5471E000C01841F100014B0243EA5C
:101F3000D0534402204619460023FEF761F9174B9F
:101F40005B68C3F3014301335B00B0FBF3F023E0B4
:101F5000124B5B68C3F388135C010025E41A65F13A
:101F60000005AE0146EA9466A701381B66EB050141
:101F7000CC0044EA5074C500E81844F100018B021B
:101F800043EA90538402204619460023FEF738F9AD
:101F9000D5E7034800E00348F8BD00BF0038024021
:101FA00000127A000024F400002800F09B8070B535
:101FB0000D4604464F4B1B6803F007038B4208D2C3
:101FC000CBB24C4A1370136803F007038B4240F006
:101FD0008B80236813F0020F17D013F0040F04D086
:101FE000454A936843F4E0539360236813F0080F65
:101FF00004D0414A936843F4604393603E4A936837
:1020000023F0F003A1680B439360236813F0010FE2
:1020100032D06368012B21D09A1E012A25D9364A75
:10202000126812F0020F61D033498A6822F003026D
:1020300013438B60FFF798FB06462F4B9B6803F01A
:102040000C036268B3EB820F16D0FFF78DFB801B89
:1020500041F288339842F0D9032042E0264A1268C0
:1020600012F4003FE0D101203BE0234A126812F055
:10207000007FD9D1012034E01E4B1B6803F0070319
:10208000AB4207D9EAB21B4B1A701B6803F0070377
:10209000AB422DD1236813F0040F06D0164A936883
:1020A00023F4E053E1680B439360236813F0080FB7
:1020B00007D0114A936823F46043216943EAC103BE
:1020C0009360FFF70BFF0C4B9B68C3F303130B4AA2
:1020D000D35CD8400A4B18600A4B1868FFF7F8FA2F
:1020E000002070BD012070470120FAE70120F8E7C9
:1020F0000120F6E7003C0240003802403C7F000827
:102100000000002008000020014B1868704700BF45
:102110000000002008B5FFF7F7FF044B9B68C3F3EE
:102120008223034AD35CD84008BD00BF0038024078
:102130004C7F000808B5FFF7E7FF044B9B68C3F32B
:102140004233034AD35CD84008BD00BF0038024088
:102150004C7F000830B4056A25F0100505628469DB
:10216000056A24F4407444EA022424F470441B03F6
:102170009BB2234325F0A005090101F0A0012943EA
:102180008361016230BC704730B4056A25F4807504
:102190000562C469056A24F00304144324F0F004C2
:1021A0001B01DBB2234325F42065090201F4206101
:1021B0002943C361016230BC704730B4056A25F41D
:1021C00080550562C469056A24F4407444EA022417
:1021D00024F470441B039BB2234325F420450903D8
:1021E00001F420412943C361016230BC70470C29CE
:1021F00014D8DFE801F0071313130A1313130D1398
:10220000131310000368586B70470368986B70478E
:102210000368D86B70470368186C704700207047DC
:1022200070477047704710B5044603681A6912F08A
:10223000020F11D0DA6812F0020F0DD06FF0020217
:102240001A610123037703689B6913F0030F70D0B1
:10225000FFF764F90023237723681A6912F0040F4B
:1022600012D0DA6812F0040F0ED06FF004021A6177
:102270000223237723689B6913F4407F5FD02046B5
:10228000FFF74CF90023237723681A6912F0080F2F
:1022900012D0DA6812F0080F0ED06FF008021A613F
:1022A000042323772368DB6913F0030F4ED0204605
:1022B000FFF734F90023237723681A6912F0100F0F
:1022C00012D0DA6812F0100F0ED06FF010021A61FF
:1022D000082323772368DB6913F4407F3DD0204631
:1022E000FFF71CF90023237723681A6912F0010F06
:1022F00003D0DA6812F0010F36D123681A6912F0A0
:10230000800F03D0DA6812F0800F34D123681A6985
:1023100012F0400F03D0DA6812F0400F32D1236878
:102320001A6912F0200F03D0DA6812F0200F30D1B2
:1023300010BDFFF775FF2046FFF773FF8AE72046C1
:10234000FFF76EFF2046FFF76CFF9BE72046FFF785
:1023500067FF2046FFF765FFACE72046FFF760FF09
:102360002046FFF75EFFBDE76FF001021A612046CD
:10237000FFF718F9C1E76FF080021A61204600F0FC
:102380004EFAC3E76FF040021A612046FFF74AFF9A
:10239000C5E76FF020021A61204600F03FFAC7E758
:1023A0000368304A904212D0B0F1804F0FD0A2F5AE
:1023B0007C4290420BD002F58062904207D002F539
:1023C0008062904203D002F57842904203D123F01C
:1023D00070034A681343234A90422AD0B0F1804FD9
:1023E00027D0A2F57C42904223D002F58062904231
:1023F0001FD002F5806290421BD002F578429042D5
:1024000017D002F57052904213D002F580629042CC
:102410000FD002F5806290420BD0A2F59832904224
:1024200007D002F58062904203D002F580629042AC
:1024300003D123F44073CA68134323F080034A692D
:10244000134303608B68C3620B688362054B984239
:1024500003D003F58063984201D10B690363012324
:10246000436170470000014040B310B5044690F846
:102470003D30F3B1022384F83D30214651F8040B7E
:10248000FFF78EFF012384F8463084F83E3084F84D
:102490003F3084F8403084F8413084F8423084F88A
:1024A000433084F8443084F8453084F83D300020CF
:1024B00010BD80F83C30FEF7F3FFDBE701207047EA
:1024C00070B4046A24F0010404628469066A194D38
:1024D000A8421DD0B0F1804F1AD0A5F57C45A84286
:1024E00016D005F58065A84212D005F58065A84292
:1024F0000ED005F57845A8420AD005F57055A842DA
:1025000006D0A5F59435A84202D044F0010202E0BD
:1025100024F00304224322F0F0021B01DBB2134338
:1025200026F00A0201F00A0111438361016270BCC6
:10253000704700BF0000014038B590F83C30012BD7
:102540005AD004460D46012380F83C3052B1042A8B
:102550001AD0082A2BD00C2A3BD00120002384F863
:102560003C3038BDCB684A6809680068FFF7A8FFAF
:102570002268936923F00C03936122689369A96828
:102580000B4393610020E9E7CB684A68096800685B
:10259000FFF7E0FD2268936923F4406393612268AA
:1025A0009369A96843EA012393610020D6E7CB68C9
:1025B0004A6809680068FFF7E7FD2268D36923F0DD
:1025C0000C03D3612268D369A9680B43D36100204F
:1025D000C4E7CB684A6809680068FFF7EEFD226827
:1025E000D36923F44063D3612268D369A96843EABD
:1025F0000123D3610020B1E70220B2E710B401F05B
:102600001F01012303FA01F4036A23EA04030362AE
:10261000036A02FA01F10B43036210BC7047000029
:1026200010B504460B4609BB90F83E00C0B26BBB28
:1026300094F84220D2B2012840F0A480012A40F050
:10264000A2809BBB022184F83E10002B3ED10221C8
:1026500084F842100C2B00F29780DFE803F04795D6
:102660009595769595957C9595958200042905D04C
:10267000082907D090F84100C0B2D8E790F83F0091
:10268000C0B2D4E790F84000C0B2D0E7042B05D028
:10269000082B07D094F84520D2B2CCE794F8432019
:1026A000D2B2C8E794F84420D2B2C4E7042B05D0D4
:1026B000082B07D0022184F84110C6E7022184F8D4
:1026C0003F10C2E7022184F84010BEE7042B05D07A
:1026D000082B07D0022184F84510BBE7022184F8BB
:1026E0004310B7E7022184F84410B3E72168CA68B1
:1026F00042F00202CA60012219462068FFF77EFFFD
:102700002368234A934232D0B3F1804F2FD0A2F5F1
:102710007C4293422BD002F58062934227D002F58F
:102720008062934223D002F5784293421FD002F593
:10273000705293421BD0A2F59432934217D01A687C
:1027400042F001021A6000201DE02168CA6842F0D0
:102750000402CA60CFE72168CA6842F00802CA6072
:10276000C9E72168CA6842F01002CA60C3E79A68E4
:1027700002F00702062A09D01A6842F001021A6024
:10278000002000E0012010BD1046FCE70020FAE721
:102790000000014090F83C30012B3BD030B40123C5
:1027A00080F83C30022380F83D3003685C689D6807
:1027B00024F070040A6822435A600368164A934260
:1027C0001AD0B3F1804F17D0A2F57C42934213D0B8
:1027D00002F5806293420FD002F5806293420BD0E3
:1027E00002F57842934207D002F57052934203D02B
:1027F000A2F59432934204D125F080054A6815432E
:102800009D60012380F83D30002380F83C3018465D
:1028100030BC70470220704700000140704770478D
:10282000026802F10C0353E8003F23F490730C326A
:1028300042E800310029F3D1026802F1140353E8A1
:10284000003F23F00103143242E800310029F3D1A4
:10285000036B012B05D0202380F83E300023036357
:102860007047026802F10C0353E8003F23F01003A5
:102870000C3242E800310029F3D1ECE790F83D300A
:10288000DBB2212B01D0022070478368B3F5805F53
:1028900017D0036A5A1C02621A7803685A60C38C04
:1028A0009BB2013B9BB2C3844BB90268D36823F04F
:1028B0008003D3600268D36843F04003D3600020F4
:1028C00070470369002BE4D1036A1B880268C3F3D5
:1028D00008035360036A02330362E0E770B50446FD
:1028E0000268136923F44053C1680B431361836882
:1028F0000269134342691343C2691A430168CB68F2
:1029000023F4164323F00C031343CB60026853698E
:1029100023F4407381690B4353610368344A934243
:1029200006D002F58062934202D0FFF7F3FB01E08C
:10293000FFF700FCE369B3F5004F2AD00026051825
:1029400046EB06012D1846EB0101CB0043EA557317
:10295000EA001546194663689A009B0F281846EB53
:102960000101FDF74DFC234DA5FB00325109642305
:1029700003FB11031B013233A5FB03235B0903F0A7
:10298000F00202EB011203F00F03216813448B6085
:1029900070BD0026051846EB06012D1846EB010117
:1029A000CB0043EA5573EA00154619466268334680
:1029B000921846EB0303281846EB0101FDF720FCB3
:1029C0000C4DA5FB00325109642303FB1103DB000E
:1029D0003233A5FB03235B095A0002F4F87202EBC1
:1029E000011203F00703216813448B60D0E700BF96
:1029F000001001401F85EB512DE9F84305460F46B5
:102A000016469946DDF820802C68246837EA0403CE
:102A10000CBF01240024B4422DD1B8F1FF3FF3D004
:102A2000B8F1000F05D0FEF79FFEA0EB090040456E
:102A3000EAD92A6802F10C0353E8003F23F4D0736B
:102A40000C3242E800310029F3D12A6802F1140364
:102A500053E8003F23F00103143242E8003100291B
:102A6000F3D1202385F83D3085F83E30002385F8EA
:102A70003C30032000E00020BDE8F88358B310B5D7
:102A8000044690F83D300BB3242384F83D3022688F
:102A9000D36823F40053D3602046FFF71FFF22685A
:102AA000136923F4904313612268536923F02A03C6
:102AB00053612268D36843F40053D360002020643C
:102AC000202384F83D3084F83E3010BD80F83C303F
:102AD000FEF7A8FDD8E7012070472DE9F04182B04C
:102AE0001E4690F83D30DBB2202B54D104460D46F3
:102AF0009046002953D0002A53D090F83C30012B47
:102B000051D0012380F83C3000230364212380F856
:102B10003D30FEF729FE0746A4F82480A4F826805D
:102B2000A368B3F5805F05D04FF00008002384F858
:102B30003C3012E0236913B14FF00008F6E7A846D5
:102B40000025F3E738F8023B2268C3F3080353601B
:102B5000E28C92B2013A92B2E284E38C9BB273B1FE
:102B600000963B46002280212046FFF745FFE0B952
:102B7000002DE7D015F8012B23685A60E8E700968E
:102B80003B46002240212046FFF736FF78B920233C
:102B900084F83D3000E0022002B0BDE8F081012061
:102BA000FAE70120F8E70220F6E70320F4E7032024
:102BB000F2E7704708B50168CA6822F04002CA60AF
:102BC000202280F83D20FFF7F4FF002008BD704769
:102BD00008B5806B0023C385C384FFF7F8FF08BDE9
:102BE000704790F83E30DBB2222B67D18368B3F593
:102BF000805F4DD0826AB3F5805F04D0002B54D142
:102C00000369002B51D103685B681370836A013339
:102C10008362C38D9BB2013B9BB2C385002B4FD116
:102C200000B583B00268D36823F02003D360026844
:102C3000D36823F48073D3600268536923F00103DF
:102C40005361202380F83E30036B012B33D10023E6
:102C50000363026802F10C0353E8003F23F0100302
:102C60000C3242E800310029F3D103681A6812F0EF
:102C7000100F06D0002201921A6801925B6801933E
:102C8000019B818DFFF7ACFF002003B05DF804FBD2
:102C90000269002AAED1826A03685B68C3F3080345
:102CA0001380836A02338362B3E703685B6803F0CF
:102CB0007F031370AAE7FEF7F7FCE5E702207047F1
:102CC0000020704730B583B0044602681368D068AE
:102CD000516913F00F0505D113F0200F02D010F049
:102CE000200F19D12DB111F0010119D110F4907FED
:102CF00016D1216B01297DD013F0800F03D010F085
:102D0000800F40F0158113F0400F03D010F0400FFA
:102D100040F0128103B030BD2046FFF762FFF9E7B3
:102D200013F0010F06D010F4807F03D0226C42F024
:102D30000102226413F0040F04D019B1226C42F096
:102D40000202226413F0020F04D019B1226C42F087
:102D50000402226413F0080F07D010F0200F00D1F6
:102D600019B1226C42F008022264226C002AD1D0F0
:102D700013F0200F02D010F0200F29D123685B69D7
:102D800003F04003226C12F0080F00D163B3204619
:102D9000FFF746FD23685B6913F0400F20D02268DF
:102DA00002F1140353E8003F23F04003143242E8D9
:102DB00000310029F3D1A36B73B1614A1A65A06B8E
:102DC000FEF78CFD0028A5D0A06B036D9847A1E706
:102DD0002046FFF706FFD1E72046FFF7F8FE99E708
:102DE0002046FFF7F4FE95E72046FFF7F0FE0023AC
:102DF00023648FE713F0100F3FF47EAF10F0100F35
:102E00003FF47AAF00230193136801935368019351
:102E1000019B536913F0400F50D0A26B13685B689D
:102E20009BB2002B3FF476AFA18D99427FF672AF33
:102E3000E385D369B3F5807F37D0226802F10C03B4
:102E400053E8003F23F480730C3242E8003100293C
:102E5000F3D1226802F1140353E8003F23F0010389
:102E6000143242E800310029F3D1226802F1140340
:102E700053E8003F23F04003143242E800310029B8
:102E8000F3D1202384F83E3000232363226802F12B
:102E90000C0353E8003F23F010030C3242E80031EA
:102EA0000029F3D1A06BFEF7CFFCA18DE38D9BB27F
:102EB000C91A89B22046FFF793FE2BE7A18DE38D57
:102EC0009BB2C91A89B2E38D9BB2002B3FF422AFAB
:102ED00000293FF41FAF226802F10C0353E8003FC2
:102EE00023F490730C3242E800300028F3D12268BA
:102EF00002F1140353E8003F23F00103143242E8C7
:102F000000300028F3D1202384F83E3000232363CF
:102F1000226802F10C0353E8003F23F010030C3247
:102F200042E800300028F3D12046FFF759FEF1E6D1
:102F30002046FFF7A3FCEDE62046FFF73BFEE9E65F
:102F4000D12B0008034681628285C2850020186467
:102F5000222283F83E2083F83C001968CA6842F4B4
:102F60008072CA6019684A6942F001024A611A68AF
:102F7000D36843F02003D360704708B590F83E3023
:102F8000DBB2202B0DD171B17AB190F83C30012B1E
:102F90000DD0012380F83C3000230363FFF7D2FFFC
:102FA00000E0022008BD0120FCE70120FAE7022032
:102FB000F8E70000DFF834D00D480E490E4A002330
:102FC00002E0D458C4500433C4188C42F9D30B4ADD
:102FD0000B4C002301E013600432A242FBD3FEF746
:102FE00019FA00F017F8FEF74BF9704700000220BD
:102FF00000000020B8090020FC810008B80900206A
:10300000D00A0020FEE70000014B1868704700BF9F
:103010000C00002070B50D4E0D4D761BB61006D07D
:10302000002455F8043B01349847A642F9D1094ED3
:10303000094D761B04F06AFFB61006D0002455F83F
:10304000043B01349847A642F9D170BDF0810008D5
:10305000F0810008F8810008F0810008F0B48607CC
:1030600046D0541E002A3CD0CAB2034601E0013CBF
:1030700037D303F8012B9D07F9D1032C2AD9CDB200
:1030800045EA05250F2C45EA054534D9A4F110027F
:1030900022F00F0C03F120071609674403F1100218
:1030A00042E9045542E902551032BA42F8D1721C85
:1030B00014F00C0F03EB021204F00F0613D0331FB1
:1030C00023F003030433134442F8045B9342FBD11F
:1030D00006F003042CB1CAB21C4403F8012B9C4235
:1030E000FBD1F0BC704734461346002CF3D1F8E70F
:1030F00014460346C1E71A462646E0E70FB400B57A
:10310000074983B004AB086853F8042B8168019326
:1031100000F008F803B05DF804EB04B0704700BF9E
:103120000C0000202DE9F04FD5B01C468B46174609
:10313000814603F015F903680D9418461693FDF7C0
:10314000DFFA1590B9F1000F04D0D9F83830002B10
:1031500000F0FD81DBF8643013F0010FBBF90C3097
:103160009AB202D19E0540F1B48695040AD4DBF8E8
:10317000642043F4005322F40051ABF80C309AB2AF
:10318000CBF86410100740F1CA80DBF81030002B38
:1031900000F0C58002F01A030A2B00F0CE80002355
:1031A000CDE92933CDE91833CDE91A3311931793BB
:1031B00008932BAB289398463B78CDF82CB0002190
:1031C0000022CDE91212002B00F071813C4604E090
:1031D00014F8013F002B00F0C780252BF8D1E51B28
:1031E00040F0C5802378002B00F061810023099313
:1031F0008DF883300693661C4FF0FF336478079395
:103200002B254FF0200A0136A4F120035A2B00F29F
:10321000CC80DFE813F06B02CA00CA006502CA0066
:10322000CA00CA006A00CA00CA0003021402CA0027
:103230000E024B02CA0045025B005B005B005B00B4
:103240005B005B005B005B005B00CA00CA00CA0059
:10325000CA00CA00CA00CA005501CA00A6018302FA
:10326000550155015501CA00CA00CA00CA007D02B5
:10327000CA00CA00DB02CA00CA00CA00B401CA0000
:103280001802CA00CA000408CA00CA00CA00CA005C
:10329000CA00CA00CA00CA005501CA00A601DA0164
:1032A000550155015501F002DA01A001CA0074026E
:1032B000CA000D030108F902A001CA00B40182008E
:1032C000FD07CA00CA00D507CA008200A4F1300376
:1032D000002216F8014B02EB820203EB4202A4F13A
:1032E0003003092BF5D909928EE7484603F038F8E8
:1032F00043681A931846FDF703FA034648461C46EE
:103300001B9303F02DF88268189234B1189B23B1F7
:10331000189B1B78002B41F0BA80347873E759462C
:10332000484601F003FD002841F04983BBF80C201A
:1033300002F01A030A2B7FF432AFBBF90E30002BD8
:10334000FFF62DAFDBF86430DB0702D4960541F1C0
:103350006C8123463A465946484601F0A5FC089040
:10336000089855B0BDE8F08FE51B00F0A080DDE9BE
:10337000293201332A44072BCDE92932C8F80070DD
:10338000C8F8045006DC08F10808089A23782A4493
:10339000089228E70B9928AA484603F061FF002805
:1033A00041F025840DF1AC08EFE70E96002C7ED09D
:1033B00000231A464FF0010A8DF8EC408DF8833057
:1033C0000C9207920F9214921092CDF828A03BAF66
:1033D000069B069913F0020318BF0AF1020A11F0C6
:1033E000840B05D10999A1EB0A06002E00F3DA83BC
:1033F0002A9D72B1299A013201350DF18300012114
:10340000072ACDE92925C8E9000100F30C8408F159
:1034100008086BB1299B0133023521A90222072B31
:10342000CDE92935C8E9001200F30C8408F1080839
:10343000BBF1800F00F08F82079B0A9A9E1A002E24
:1034400000F3CE82069BDE0500F12982299B0A9AB1
:10345000C8F8007001331544072B2A95C8F80420DA
:10346000299300F3338308F10808069B5E0705D50E
:10347000099BA3EB0A04002C00F3F183DDE9083279
:103480005245ACBF9B1853440893002D40F0E18295
:10349000002329930C9B1BB10C99484602F038FE7F
:1034A0000DF1AC080E9F3B78002B7FF48FAE2A9B6A
:1034B000DDF82CB0002B40F0E08700232993D7E201
:1034C0000D9B0E96073323F007031946F1E80223FC
:1034D000CDE91223DDE912AB2BF000450D91B84B7D
:1034E000504629464FF0FF32FDF7CEFD002840F050
:1034F0004E85B34B504629464FF0FF32FDF7A6FDEF
:10350000002840F044850022002350465946FDF72C
:1035100093FD002841F084819DF88320A94FAA4B98
:10352000069800214FF0030A20F080000C910690CD
:10353000472CC8BF1F46CDF828A007910F911491C2
:103540001091002A3FF444AF0AF1010A40E74846CF
:1035500002F042FDFEE5069B347843F0200306931B
:1035600051E60D9B0E9653F8042B8DF8EC200021AC
:103570000A464FF0010A0D938DF8831020E70D9D48
:103580000E9655F8047B00268DF88360002F00F01E
:103590007286079A1346013300F01B87314638467E
:1035A000FCF7AEFF0C90002801F0C3810C9B07963E
:1035B000DA1B0A92334622EAE27A0D959DF88320BF
:1035C0000C930F9314931093BBE7069B0E969D06E6
:1035D00040F1AD800D9B073323F007031946F1E856
:1035E00002230D9192469B46002A73F10003C0F21C
:1035F000AF80079B013300F09D85069B23F080057B
:103600005AEA0B0340F0BD82079B002B40F0C082BA
:103610000695002307930A9354AFC3E00D9B53F81C
:10362000042B0992002A80F25D84099A0D9352427C
:103630000992069B347843F004030693E3E534785B
:103640008DF88350DFE5069B0E9643F01005AF061C
:1036500040F11A840D9B073323F00703F3E802AB14
:103660000D93012300228DF88320079A1146013122
:103670007DD025F0800106915AEA0B0140F07D8251
:10368000002A40F07486002BC3D115F001030A9381
:1036900000F05B8430238DF84F310DF24F1781E03D
:1036A000069B347843F080030693ACE5324612F86B
:1036B000014B2A2C01F0D382A4F13003092B1646CA
:1036C00098BF002201F2738116F8014B02EB8202CF
:1036D00003EB4202A4F13003092BF5D9079293E5DD
:1036E000069B347843F0010306938CE59DF8833004
:1036F000002B7FF412AE34788DF883A083E5347804
:10370000069B6C2C00F0B08543F0100306937AE51D
:10371000069B347843F00803069374E5069B0E96E7
:1037200043F010030693069B9D063FF553AF069B9F
:10373000D80640F11C840D9B53F8042B0D934FEADF
:10374000E27B5B46002A73F100039246BFF651AF5D
:10375000079A069DDAF1000A11464FF02D036BEB34
:103760004B0B01318DF883304FF0010381D1012BD8
:1037700000F00782022B54AF72D117984FEA1A1348
:103780000AF00F0143EA0B734FEA1B129A46934665
:10379000435C07F8013D5AEA0B03EFD154ABDB1B46
:1037A00006950A93002307990C930F931493109393
:1037B0000A9B9DF883208B42B8BF0B469A46C0E611
:1037C000FFFFEF7F647F0008687F0008069B0E966E
:1037D00043F010030693069B990640F165830D9B09
:1037E000073323F00703F3E802AB0D93069B23F4A2
:1037F0008065002336E73478069B682C00F02D8521
:1038000043F040030693FEE40D9B0E9647F630010D
:1038100053F8042BADF8841006990D93B14B179310
:1038200041F0020592464FF0000B0223782419E77D
:10383000069B0E969E0600F17184069BDD0600F144
:103840009B85069B5C0600F13886069B980540F137
:1038500093850D9B089953F8042B0D93117021E665
:103860004FEADA0242EA4B724FEADB010AF0070341
:103870008B46924630335AEA0B013A4607F8013D2F
:10388000EED1E9078AD5302B88D03023023A07F8E9
:10389000013C54AB9B1A06950A93174682E7652CA8
:1038A00040F32681DDE9120100220023FDF7BAFB77
:1038B000002800F00E82299B8B4AC8F800200133B3
:1038C00001350122072BCDE92935C8F8042000F382
:1038D000308508F10808229B119A934280F2F48205
:1038E000299B169AC8F80020159AC8F804200133BD
:1038F0001544072B2A95299300F3A28408F10808A0
:10390000119B5C1E002C7FF7B0AD102C299BDFF8BB
:10391000DCB140F31F855F461026DDF82CB005E0D2
:1039200008F10808103C102C40F3138501331035C2
:10393000072BCDE92935C8E90076F1DD28AA5946DB
:10394000484603F08DFC002840F08D80DDE92935E4
:103950000DF1AC08E6E7099BA3EB0A06002E7FF702
:103960006BAD102E299ADFF884B126DD294610238D
:1039700025465C46DDF82CB004E0103E102E08F120
:10398000080817DD01321031072ACDE92921C8E9DD
:103990000043F2DD28AA5946484603F061FC00289E
:1039A00061D1103E102EDDE929210DF1AC084FF058
:1039B0001003E7DCA3462C460D4601323544072AA6
:1039C000CDE92925C8F800B0C8F8046000F32B84BD
:1039D000079B0A9A9E1A002E08F108087FF732AD5D
:1039E000102E299ADFF804B125DD2946102325463B
:1039F0005C46DDF82CB004E0103E102E08F10808FB
:103A000016DD01321031072ACDE92921C8E900432A
:103A1000F2DD28AA5946484603F022FC18BB103EA6
:103A2000102EDDE929210DF1AC084FF01003E8DC80
:103A3000A3462C460D4601323544072ACDE92925F7
:103A4000C8F800B0C8F8046000F3118208F1080853
:103A5000F8E40B9928AA484603F002FC00283FF43A
:103A600017ADDDF82CB00C9911B1484602F050FBAF
:103A7000DBF8643013F0010FBBF80C3002D19C0569
:103A800040F12E84580600F1A687089855B0BDE88D
:103A9000F08F299B1699C8F800101599C8F80410E2
:103AA00001330D44072B2A95299300F3AF8508F1C4
:103AB0000808002AC0F29E87119A01331544072B8B
:103AC000CDE92935C8E900727FF7CDAC0B9928AA5A
:103AD000484603F0C5FB0028C3D12A9D0DF1AC0870
:103AE000C3E400BF747F0008A47F0008B87F00080B
:103AF000119B299C012B40F3728101340135012374
:103B0000072CCDE92945C8F80070C8F8043000F347
:103B1000CD8308F10808159B169A01341D44072C23
:103B2000CDE92945C8E9002300F3CD8308F1080851
:103B30000023DDE912010022FDF774FA119B002831
:103B400040F06A81013B013401371D44072CCDE967
:103B50002945C8F80070C8F8043000F3508108F116
:103B60000808199A0134154424AB072CCDE92945DE
:103B7000C8E900327FF777ACA8E7012B069D7FF4F8
:103B8000F9ADBBF1000F08BFBAF10A0F80F0DA827D
:103B90000AF1300A01238DF84FA106950A930DF220
:103BA0004F17FFE5102EDDE929212ADD1C933B4646
:103BB00040464F46A04610250B9C994604E0103E17
:103BC000102E00F1080016DD0132C84B1031072A13
:103BD000CDE92921C0E90035F1DD28AA2146384682
:103BE00003F03EFB002840F09483103E102EDDE9E8
:103BF00029212BA8E8DC44461C9B80464846B94650
:103C000007460132B948C8F800007518072ACDE9FF
:103C10002925C8F8046000F36B839DF8832008F120
:103C20000808FFF7E6BB0B991C9328AA484603F047
:103C300017FB00287FF415AF2A9D1C9B0DF1AC08E3
:103C4000FFF7E7BB0B9928AA484603F009FB0028B9
:103C50007FF407AF2A9D0DF1AC08FFF7E9BB102CEC
:103C6000299B1FDD0B9F102604E0103C102C08F14F
:103C7000080817DD01339D4A1035072BCDE929359A
:103C8000C8E90026F1DD28AA3946484603F0E8FADB
:103C9000002840F05B83103C102CDDE929350DF144
:103CA000AC08E7DC0133914AC8F800202544072B13
:103CB000CDE92935C8F804407FF7E0AB0B9928AA75
:103CC000484603F0CDFA00287FF4CBAE2A9DFFF7DB
:103CD000D5BB229A002A40F30D81DDE910329342D0
:103CE000A8BF1346002B1C460DDD299BC8F80070A9
:103CF00001332544072B2A95C8F80440299300F383
:103D0000B48508F10808109B002CA8BF1B1B002BD2
:103D10001C4600F33983109B3B449B46069B590588
:103D200000F1E284229B119A934203DB069AD207A8
:103D300040F1B483299A1699C8F800101599C8F86B
:103D4000041001320D44072A2A95299200F3C385F5
:103D500008F10808119ABC18A4EB0B04D31A9C4272
:103D6000A8BF1C46002C0DDD299AC8F800B001320E
:103D70002544072A2A95C8F80440299200F30786AB
:103D800008F10808002CACBF1C1B1C46002C7FF758
:103D90006CAB102C299BDFF858B140F3DB825F46F7
:103DA0001026DDF82CB005E008F10808103C102CB6
:103DB00040F3CF8201331035072BCDE92935C8E90F
:103DC0000076F1DD28AA5946484603F049FA002852
:103DD0007FF449AEDDE929350DF1AC08E6E7069B35
:103DE000DB073FF58AAE013401350123072CCDE90D
:103DF0002945C8F80070C8F804307FF7B0AE0B99B9
:103E000028AA484603F02CFA00287FF42AAEDDE900
:103E100029450DF1AC08A4E65E1E002E7FF7A1AE89
:103E2000102EDFF8CCB040F3E082CDF81CA01027B4
:103E3000CA46DDF82C9005E008F10808103E102E67
:103E400040F3D08201341035072CCDE92945C8E96B
:103E500000B7F1DD28AA4946504603F001FA0028D0
:103E600040F0A985DDE929450DF1AC08E6E70B999D
:103E700028AA484603F0F4F900287FF4F2AD2A9D01
:103E80000DF1AC08FFF7DEBA0D9AEE0652F8041BEE
:103E90000D924FF001035DD4680658D51FFA81FAE0
:103EA0004FF0000BFFF7DEBB069BDA0657D4069BEC
:103EB0005B0640F1B2820D9B53F8042B0D931FFA61
:103EC00082FA4FF0000B91E4069BD8077FF5CDAA4C
:103ED00006E5DBF8580002F04BFABBF90C309AB259
:103EE000FFF743B934780D93FFF78DB9A87F000829
:103EF000B87F0008299BC349C8F800100133013579
:103F00000121072BCDE92935C8F8041000F3968468
:103F100008F10808002A7FF4BCAD069B119A03F053
:103F2000010313433FF4A1AA299B169AC8F8002065
:103F3000159AC8F8042001331544072B2A952993B4
:103F400000F3648308F10808B6E554AF2AE4AA0533
:103F500000F1AD828A464FF0000BFFF783BB0D9B4B
:103F600053F8042B0D9392464FF0000B3EE4069B52
:103F7000590640F161820D9B53F8042B0D930FFA03
:103F800082FA4FEAEA7B52465B46FFF72DBBDDE93A
:103F900012010B460246FDF777F80146002840F073
:103FA0001686612C00F08A85412C00F09582079BD3
:103FB00024F020065A1C0A9600F0AA85472E00F02D
:103FC0008285DDE91212069BB2F1000A43F4807388
:103FD00010934FF00003C0F2CA851C930C938B46DC
:103FE000462E5A46534600F08484452E40F05784AE
:103FF000079926A84D1C23A90490039122A8022109
:10400000019502900091484600F096FF074605444E
:10401000069B0F93109B069358465146002200239F
:10402000FDF700F8002800F041832B46DB1B1193BD
:104030000A9B472B00F00C830A9B462B00F08684DA
:10404000229B1093109B0A9A013B412A229300F075
:104050008885E2B20021002BB8BF109B8DF890201C
:10406000BABFC3F101032D222B22092B8DF8912019
:1040700040F368850DF19F0EDFF890C175468CFB0B
:104080000321DA17C2EBA10202EB8201A3EB41018B
:104090001E463031632E284605F8011C134605F1F3
:1040A000FF35ECDC3033DAB2831E9E45294605F835
:1040B000012C40F2DF850DF1920301E011F8012B94
:1040C00003F8012B8E45F9D10DF1A1030DF19202F8
:1040D0001B1A134424AA9B1A1993119B199A012B9A
:1040E0001A440A9240F395850A9B159A13440A9341
:1040F0000F9B23F4806600230F93149310930A9B65
:1041000046F48072069223EAE37A1C9B002B40F06F
:10411000C6829DF883200793FFF713BA0D9B53F8CF
:10412000041B0D93089BDD171A462B46C1E900239B
:10413000FFF7B8B9BBF1000F08BFBAF10A0F069D2F
:10414000FFF426AD05F4806600230694CDF8289090
:104150003446C14654AFA8461E46189D09E0FCF7F8
:104160004FF8BBF1000F08BFBAF10A0F1FD3824608
:104170008B460A22002350465946FCF741F89446E4
:104180000CF1300C07F801CC504659460A220023A6
:104190000136013F002CE2D095F800C06645DED123
:1041A000FF2EDCD09B4508BF924580F08B8218958E
:1041B000069C11964546C846DDF82890FFF7EEBAF2
:1041C000114B0E961793069B9F0664D50D9B0733E4
:1041D00023F00703F3E802AB0D93069AD0070AD544
:1041E0005AEA0B0307D0302342F002028DF88540D3
:1041F00006928DF88430069B23F480650223FFF736
:1042000031BA00BFA47F0008747F00086766666645
:10421000069D0E96FFF71BBA0E96FFF7DCBAAB4B66
:104220000E961793CFE70B9928AA484603F018F883
:1042300000287FF416AC2A9D0DF1AC08FFF7FCB8FE
:104240000B9928AA484603F00BF800287FF409AC24
:104250002A9D0DF1AC08FFF753BB43F4007374784B
:1042600006930136FEF7CFBF43F020037478069320
:104270000136FEF7C8BF079B0F97062B28BF062302
:104280000797149710970C973A469A46904F0D95BA
:104290000A93FFF756B9069BDE063ED50D9B53F8F1
:1042A000042B0D9392464FF0000B96E70B9928AA2A
:1042B000484602F0D5FF00287FF4D3ABDDE929455D
:1042C0000DF1AC0827E40B9928AA484602F0C8FF74
:1042D00000287FF4C6ABDDE929450DF1AC0827E4E1
:1042E000DBF8580002F046F8BBF80C30FFF7CABB09
:1042F0000B991C9328AA484602F0B2FF00287FF4CD
:10430000B0AB9DF883202A9D1C9B0DF1AC08FFF7F4
:1043100070B8B946A346FFF7A6BB069B5D066ED5EF
:104320000D9B53F8042B0D931FFA82FA4FF0000BEC
:1043300053E70B9928AA484602F092FF00287FF421
:1043400090AB2A9D0DF1AC08FFF7C5BABB46FFF74D
:104350008ABBBB4601332544072BC8F800B0CDE922
:104360002935C8F804407FF77EA8FFF7AFBB012BC3
:10437000069D7FF4FFA90BE40D9B089953F8042BCD
:1043800011600D93FFF78EB8102C299BDFF844B114
:1043900065DD2A4610265D46DDF82CB004E008F104
:1043A0000808103C102C58DD01331032072BCDE9E2
:1043B0002932C8E90056F2DD28AA5946484602F0DB
:1043C0004FFF00287FF44FABDDE929320DF1AC0837
:1043D000E7E73846FCF794F93346079602460A9019
:1043E000FFF7E9B8D146DDF81CA001343544072CAD
:1043F000CDE92945C8E900B67FF7B1ABFFE4069BDC
:1044000013F4007F0D9B53F8042B0D9314BF5FFA38
:1044100082FA92464FF0000BDFE6069B13F4007F12
:104420000D9B53F8042B0D9314BF5FFA82FA92464A
:104430004FF0000BFFF7DAB9069B13F4007F0D9BDA
:1044400053F8042B3FF47AA94FFA82FA4FEAEA7B39
:104450000D9352465B46FFF7C7B8AB46154601338E
:104460002544072BCDE92935C8F800B0C8F8044029
:1044700000F3E18008F108084DE4484628AA5946AF
:1044800002F0EEFE00283FF418A8FFF7F1BA069BF1
:10449000347843F480630693FEF7B5BE119ABC18D6
:1044A000A4EB0B04D31A9C42A8BF1C466AE45FFA33
:1044B00081FA4FF0000BFFF7D5B80D9B089953F820
:1044C000042B0D931180FEF7EDBF00BF887F00081D
:1044D0009C7F0008B87F000830238DF88430582373
:1044E0008DF88530069B43F00205079B632B00F394
:1044F000BF8200230C933BAFDDE91212069B0695A9
:1045000043F4817324F02006B2F1000A10930A9656
:10451000C0F2A38100238B461C93612C00F0FC8227
:10452000412C7FF45DAD5846514622AA02F098FD19
:1045300000224FF07F53FCF70DFB00220023824640
:104540008B46FCF76FFD08B101232293B74B0F9305
:10455000079B1D94CDE91E973E465D1E0F9FCDF82B
:10456000508003E0FCF75EFD013D08BBB04B00222C
:1045700050465946FCF7EEFA89468046FCF79AFD0C
:104580000446FCF77DFA02460B4640464946FCF7D6
:1045900029F917F804C0B5F1FF3FB046824606F886
:1045A00001CB8B464FF000024FF00003A946D9D152
:1045B000A04BCDF84480002250465946DDF850808B
:1045C0001F9F14944D46DDE91D49FCF753FD00285B
:1045D00040F05882974B504659460022FCF722FD86
:1045E00018B1149BDB0700F14D82002D2B4606DB32
:1045F00001333344302206F8012BB342FBD1069B32
:104600000F93F31B1193109B069311E50B9928AAA6
:10461000484602F025FE00287FF423AADDE929356B
:10462000229A0DF1AC08FFF744BADBF8580001F00C
:10463000A1FEFEF78EBE0B9928AA484602F010FE96
:1046400000287FF40EAA2A9D0DF1AC08FFF763BB8A
:10465000229B1093D81C02DB079A934204DD023C94
:1046600024F020030A93EDE4DDE910318B42C0F21F
:1046700084810F9AD20740F1B782159A13440A93A6
:104680000F9B5B0503D5109B002B00F372820A9BE6
:10469000672423EAE37A00230F93149335E52D2250
:1046A00000238DF883200793FEF74EBF269BAB4275
:1046B000BFF4BCAC30215A1C26921970269B9D4237
:1046C000F9D8B3E41B9B1A99FF1A1A46384602F030
:1046D00057FD6B7803B101350A2200235046594635
:1046E0000026FBF78DFD42E5119BCDF828A0424640
:1046F000DDF850801097FB1807935E46DDF86CA03C
:10470000DDF82CB0189F0F9B2946B8F1000F2ED072
:10471000002B6AD1013F08F1FF38299B1A981060DD
:1047200001335144072B2A91C2F804A0299360DC7D
:10473000083207983B78841B9C42A8BF1C46002C7B
:104740000ADD299B166001332144072B2A9154600E
:10475000299359DC3B780832002CACBF1C1B1C464B
:10476000002C14DC1E440F9BB8F1000FD0D1002B9D
:104770003BD11897DDE91073FB189E42B346DDF874
:1047800028A090460D4628BF9B46FFF7CBBA102CB9
:1047900029981DDD102504E0103C102C02F10802C0
:1047A00016DD0130244B10310728CDE92901C2E97B
:1047B0000035F1DD28AA5946484602F051FD00288F
:1047C0007FF451A9103C102CDDE929012BAAE8DC6B
:1047D0000130194B136021440728CDE929015460A9
:1047E00050DC3B7808321E44BDE70F9B013B0F9322
:1047F00093E728AA5946484602F032FD00287FF484
:1048000032A92A992BAA94E728AA5946484602F0C9
:1048100027FD00287FF427A93B782A992BAA9BE73C
:104820002D228DF88320FEF779BE00BF887F000817
:10483000000030400000E03FB87F00080B9928AA34
:10484000484602F00DFD00287FF40BA9229A2A9D0C
:104850000DF1AC08FFF75EBB0C90DDE9122303F10C
:10486000004A2D2393461C9357E60B9928AA4846E5
:1048700002F0F6FC00287FF4F4A82A9D0DF1AC08A4
:10488000FFF741BA28AA5946484602F0E9FC002839
:104890007FF4E9A83B782A992BAA1E4463E726A84F
:1048A00023A9079D0490039122A80221029001955B
:1048B0000091484600F040FB472E074627D1069B53
:1048C000DA0700F18D80109A069247220F930A9220
:1048D000269BFFF7ABBB0B9928AA484602F0C0FC09
:1048E00000287FF4BEA8229B2A9D0DF1AC08FFF79B
:1048F00031BA26A823A9079D0490039122A8032179
:10490000029001950091484600F016FB0746079B70
:10491000462E07EB03057FF47BAB3B78302B00F092
:104920006A81229B069A0F921D44109B0693FFF703
:1049300073BBDDF81CA09DF88320CDF828A007905C
:104940000D950F9014901090FEF7FBBD229A0F9BCF
:104950001092002A40F36E81079903F001030B4384
:1049600040F02E81109B0A9366240F9B590500F19D
:1049700001810A9B23EAE37A8DE6119B159A9A1826
:10498000109B0A92002B40F34A816724EDE70B99B4
:1049900028AA484602F064FC00287FF462A8229B03
:1049A000119A2A9DD31A0DF1AC08FFF7EBB9002339
:1049B0000793FEF729BCCB46D146FFF754B8DBF886
:1049C0006430D90707D4BBF80C309A0503D4DBF860
:1049D000580001F0CFFC4FF0FF330893FFF755B8B4
:1049E000069B0F93079BFD18109B069347230A9382
:1049F000FFF712BB54421032DFF8A8B221DA2A4680
:104A000010265D46DDF82CB004E008F10808103CE3
:104A1000102C14DD01331032072BCDE92932C8E9FF
:104A20000056F2DD28AA5946484602F019FC002833
:104A30007FF419A8DDE929320DF1AC08E7E7AB46B0
:104A4000154601332544072BCDE92935C8E900B4C3
:104A50007FF778AA0B9928AA484602F001FC0028A3
:104A60007EF4FFAFDDE929350DF1AC08FFF724B87E
:104A7000591C484601F0FAFC0746002800F0FE8069
:104A80000C9039E5119B26930F9B16F8012CD97BCE
:104A90008A42334609D1302003F8010C269B5A1E66
:104AA000269213F8012C9142F6D0392A0BBF0F9AA7
:104AB0000132927AD2B203F8012CA0E530238DF8AE
:104AC000843078230CE5002B08BF01230793069B55
:104AD00043F480731093139BB3F1000AFFF6BCAE4E
:104AE000079E019626AD23A8CDE90305DDE9125600
:104AF00022AA0223029200932A46334648468B4656
:104B00000C9100F019FACDF870B00746AB46D6E626
:104B100006230793FFF755BA5846514622AA02F0DA
:104B20009FFA00224FF07F53FCF714F80022002375
:104B300082468B46FCF776FA08B101232293564B46
:104B40000F9305E5002972D130228DF892200DF1E6
:104B50009302303302F8013B24ABD31A1993FFF7C9
:104B6000BCBA04F10F02D2B20121FFF774BA0C9360
:104B700073E6672418990B78FF2B00F089800025D5
:104B8000109A284603E001300131FF2B08D09342F0
:104B900006DAD21A4B78002BF5D10B780135F4E701
:104BA0001891109214900F950F9A149B0A99134420
:104BB0001B9A02FB03130A9323EAE37AFFF7A5BAD1
:104BC000159B02EB030A51440A916624CDE6139B20
:104BD000324F002BB4BF2D229DF88320304BB8BF3D
:104BE0008DF88320FEF79CBC109B0A9348E5DDF806
:104BF0002CB0FEF73DBF5846514600220023FCF77B
:104C000011FA00287FF48DAE079BC3F101032293B4
:104C100088E60F9BD9077FF56BAAFFF765BAC3F14A
:104C200001031A440A9222EAE27A672433E50DF17D
:104C300092028EE703F00106079B56EA030205D1B4
:104C40004FF0010ACDF828A0662424E5159A02F158
:104C5000010A53440A9323EAE37A66241BE50D9B79
:104C6000747853F8041B0D93164641EAE1720792DB
:104C7000FEF7C9BA02231993FFF72FBADDF82CB05B
:104C8000BBF80C3043F04003ABF80C30FEF7F0BE3D
:104C900000230F93149387E7747F00086C7F00084C
:104CA000707F0008B87F0008F0B50C46ADF26C4D7F
:104CB0008989B4F80EC0ADF80EC01F46636E199313
:104CC0001546636AE269079221F002011AAA0646B4
:104CD000ADF80C10099300214FF4806316A80691DB
:104CE000009204920293059301F03EFB2A463B4654
:104CF00069463046FEF716FA051E07DB3046694660
:104D000001F00EF9002818BF4FF0FF35BDF80C3048
:104D10005B0603D5A38943F04003A381169801F0F5
:104D200025FB28460DF26C4DF0BD00BF38B5324B67
:104D30001B6805460C4613B19A6B002A3CD0B4F9A7
:104D40000C3018079AB20CD52169A9B112F00100F4
:104D500022D0606900254042A061A56011B3002007
:104D600038BDD10640D552072AD4216943F0080343
:104D7000A3819AB20029E9D102F42070B0F5007F36
:104D8000E4D02846214601F025FBB4F90C30216916
:104D90009AB212F00100DCD1950758BF6069A0609B
:104DA0000029DCD1120658BF0846D9D543F040038C
:104DB000A3814FF0FF3038BD184601F00DF9BEE772
:104DC000216B51B104F14002914204D0284601F018
:104DD0009FF9B4F90C30002222632169216000227E
:104DE000626023F02403C1E743F0400309222A60F4
:104DF0004FF0FF30A38138BD0C000020024B13B1EF
:104E0000024800F005B87047000000004560000847
:104E1000002301461A46184602F042BA2DE9F04F27
:104E200003690E69B34283B0C0F28280013E01F192
:104E3000140700F1140A57F826305AF826200133D7
:104E40008346B00000909A420AEB860007EB860981
:104E50000190B2FBF3F836D300252A46BC465046F3
:104E60005CF8044B03681FFA84FE08FB0E554FEAFA
:104E7000154E240C08FB04E4ADB2551BA2B2C2EBE4
:104E8000134215FA83F302EB23429BB243EA024337
:104E9000E14540F8043B4FEA14454FEA2242DFD295
:104EA000009B5AF8033073B9019B043B9A4504D325
:104EB00007E09A4506F1FF3603D253F80429002A89
:104EC000F7D0CBF81060584601F0BCFF00282BDB70
:104ED00008F101085046002357F8041B04688AB201
:104EE0009A1A0B0C12FA84F2C3EB144303EB22431D
:104EF00092B242EA0342B94540F8042B4FEA2343F9
:104F0000EAD25AF826200AEB86036AB9043B9A458E
:104F100004D307E09A4506F1FF3603D253F804297B
:104F2000002AF7D0CBF81060404603B0BDE8F08F00
:104F3000002003B0BDE8F08F2DE9F04F016C9BB06D
:104F400016461F46CDE90267279D044641B1426CD3
:104F50004A60012393408B6001F074FD00232364B9
:104F6000B7F10009B4BF012300232B60764BBCBF0F
:104F700029F00049CDF80C9033EA090300F0AA802B
:104F8000DDE90223CDE9082310461946002200235B
:104F9000FCF748F8824670B1269A01231360289BDB
:104FA000002B00F0CB8269481860431E04930498DC
:104FB0001BB0BDE8F08F18AA19ABCDE9003220462E
:104FC000DDE9082301F0F8FF5FEA1955804640F05B
:104FD0009780DDE918B55D4405F23240202840F3A2
:104FE0009D83C0F1400305F2124009FA03F926FA45
:104FF00000F049EA0000FBF733FD0123013DA1F178
:10500000F8710D93524B0022FBF7ECFB48A3D3E958
:105010000023FBF79FFD48A3D3E90023FBF7E4FB44
:10502000064628460F46FBF72BFD45A3D3E9002390
:10503000FBF790FD02460B4630463946FBF7D4FBA2
:1050400006460F46FCF736F800228246002330461B
:105050003946FBF7F1FF002840F06382BAF1160FE2
:1050600000F251823B4B03EBCA03D3E90023DDE995
:105070000801FBF7E1FF002872D00023ABEB050528
:105080000C936B1E0AF1FF3A059300F14482002352
:105090000793BAF1000F6BDA079BCDF818A0A3EBCA
:1050A0000A030793249B092BCAF1000B4FF0000A57
:1050B00067D8052B40F33083043B24930025249BC1
:1050C000023B032B00F27886DFE813F04C0449041E
:1050D00040042304269A42F20F73C9F313091360A4
:1050E00059EA06031CD1289B002B00F05C861A4B62
:1050F00004930833289A049813601BB0BDE8F08F1E
:10510000DDE90812C2F31303084643F07F51DDF8CE
:1051100060B0CDF834A0A5F2FF3541F4401171E73D
:10512000289B002B40F0E4830C4B04933FE700BF27
:1051300061436F63A787D23FB3C8608B288AC63F9D
:10514000FB799F501344D33F0000F07FA57F0008F8
:105150000000F83F00800008CC7F0008C87F0008EE
:10516000ABEB05056B1E059300F1A4840C90079032
:10517000059B5344CDE9053A249B092B4FF0000BC6
:1051800097D94FF0FF360125CDE90A650023249316
:105190002593002161641296204601F02DFC0E2E0D
:1051A0000490206400F2F680002D00F0F380069950
:1051B000002940F35384BB4B01F00F0203EBC20301
:1051C000D3E90023CDE90E23CA054FEA211540F1AA
:1051D000EA83B54BDDE90801D3E90823FBF7E4FDD9
:1051E000CDE9100105F00F054FF0030985B1DDE9A8
:1051F0000E01AD4EEB0705D5D6E90023FBF7AAFC5F
:1052000009F101096D1006F10806F3D1CDE90E018F
:10521000DDE90E23DDE91001FBF7C6FDCDE90E0146
:105220000C9B53B1DDE90E67A04B00223046394696
:10523000FBF702FF002840F03E854846FBF720FCC4
:10524000DDE90E23FBF786FC994B0022FBF7CCFA35
:10525000A1F15073CDE9100111930A9B002B00F0CE
:10526000DF83069B14930A9B13930B9B002B00F088
:10527000A984139A8B4B8F4903EBC20353E9022392
:105280000020FBF791FDDDE91023FBF7ABFA0F4699
:105290000646DDE90E01CDE91067FBF70BFF074677
:1052A000FBF7EEFB02460B46DDE90E01FBF79AFA2F
:1052B000049D303702460B4605F8017BDDE91001FD
:1052C000CDE90E23FBF7D6FE002840F037854FF0DE
:1052D0000009CDE916BACDF85480CA46AB46DDE9DF
:1052E0000E89139F0E94DDE9104524E0BA454CDA8F
:1052F000FBF730FC704B002204460D464046494601
:10530000FBF728FC89468046FBF7D4FE0646FBF7F0
:10531000B7FB02460B4640464946FBF763FA303678
:105320000BF8016B22462B4680468946FBF784FE2C
:10533000002840F0FF8442464B465C490020FBF7C2
:1053400051FA22462B46FBF777FE06465A4B0AF1E6
:10535000010A002220462946002EC7D0149BDDF802
:1053600054800E9C049A06935D4602E0954200F03C
:10537000CB84AA4615F8013D392BF7D00133DBB2B7
:105380002B70069B01330693A8E1DDE916BADDF820
:1053900054800E9C199B002BC0F29280069A0E2A14
:1053A00000F38E803F4B03EBC203D3E900AB259B98
:1053B000002B1ADA0A9B002B17DC40F0B6843F4B17
:1053C000002250465946FBF7C5FB02460B46DDE975
:1053D0000801FBF73BFEDDF828904D46002800F061
:1053E0005082259B049FDE4353E2DDE90856524676
:1053F0005B4628463146FBF7D7FCFBF75BFE0746CA
:105400008146FBF73DFB52465B46FBF7A3FB0B4691
:10541000024631462846FBF7E5F93B460A9F049DC4
:105420003033012F05F8013B00F07E834FF0010976
:10543000CDF808802E46059417E0FBF7B5FCFBF786
:1054400039FE8046FBF71CFB52465B46FBF782FBAE
:105450000B46024629462046FBF7C4F908F1300303
:10546000B94506F8013B00F05A83134B0022FBF7C5
:1054700071FB0022002304460D46FBF7D3FD844652
:1054800009F1010952465B4620462946BCF1000F4E
:10549000D3D0DDF80880059C3546069B0133069382
:1054A000AA461BE100800008D87F00080000F03FFA
:1054B00000001C400000E03F0000244000001440B9
:1054C0000B9A002A40D0249A012A40F38A820A9B30
:1054D0005F1EBB4580F26482A7EB0B039A44BB4678
:1054E00000270A9B002BC0F24D83059A1146079AAC
:1054F000194416461A44059107920121204601F0ED
:105500003BFB054623E00123ABEB05050C936B1E2B
:1055100005937FF5BCADC5F1010307930023059307
:10552000B7E55046FBF7ACFA32463B46FBF77AFD4F
:1055300000287FF493AD0AF1FF3A8FE5C54B049341
:1055400004981BB0BDE8F08F079E0B9D5F46002EB0
:105550000CDD059A002A09DD0799B2421346A8BF5F
:105560003346C91AF61AD31A07910593BBF1000FF7
:105570001AD00B9B002B00F0B481002F10DD2946C0
:105580003A46204601F0A4FB424601460546204625
:1055900001F0FCFA414603462046984601F052FAD3
:1055A000BBEB070240F09E810121204601F0E4FAA6
:1055B000BAF1000F814600F3B680249B012B40F323
:1055C0009C8100270120BAF1000F40F0B780059AB6
:1055D000104410F01F0000F09680C0F12003042B4F
:1055E00040F3E583079BC0F11C000344024407938A
:1055F00006440592079B002B05DD41461A462046CE
:1056000001F0B6FB8046059B002B05DD49461A4696
:10561000204601F0ADFB81460C9B002B40F04681FB
:105620000A9B002B40F318810B9B002B40F09880C5
:10563000069B01330693049FDDF828A0012603E0B2
:1056400001F00AFA0136804649464046FFF7E6FB7C
:10565000564500F1300C07F801CB41464FF00003EE
:105660004FF00A022046EBDB0A9BCDF808C0002B66
:10567000C8BF9B46049BD8BF4FF0010B9B4400263C
:1056800041460122204601F073FB4946804601F065
:10569000D9FB002840F393811BF8013C049A0BF1DD
:1056A000FF3B04E05A4500F095811BF8013D392B82
:1056B0000BF1010AF6D001338BF800304946204641
:1056C00001F0C0F955B12EB1AE4203D031462046AB
:1056D00001F0B8F92946204601F0B4F941462046C8
:1056E00001F0B0F900238AF80030269B1A46069B89
:1056F0001360289B002B3FF45AAC0498C3F800A019
:105700001BB0BDE8F08F1C20079B03440793059B4B
:105710000344064405936DE70125D0E4C0F1200061
:1057200006FA00F067E401465246204601F0D0FA3E
:10573000249B012B814640F3BF810027D9F810300C
:1057400009EB8303186901F0C7F9C0F120003EE7B7
:10575000249B022B00F31E83129BCDF818A00A9302
:10576000069B01330693002E00F31381002F40F0B7
:10577000F5812F46029B2499049E03F001020C92AE
:105780000A430B920A9A731E1A44089249464046ED
:10579000FFF744FB29468346404601F053FB494648
:1057A00082463A46204601F06BFB0BF13003029330
:1057B000C3680146002B41D10790404601F042FBEF
:1057C00007990590204601F03DF9059B1BB90B9AFE
:1057D000002A00F0C482BAF1000FC0F28481249A3A
:1057E00042EA0A0A0C9A52EA0A0200F07C81002B73
:1057F00000F3CC81029B3370089B06F1010AB3428F
:10580000D34600F0CF81414600230A22204601F012
:1058100023F9BD42804629464FF000034FF00A02AB
:10582000204610D001F018F93946054600230A2217
:10583000204601F011F956460746A7E7204601F039
:1058400001F90123C7E701F007F956460546074667
:105850009CE700BFA47F0008249B022B40F38580B7
:105860000A9B002B7FF4BDAD49460522204601F07E
:10587000F3F801468146404601F0E4FA00287FF73C
:10588000B0AD049F069E3B46312203F8012B013642
:1058900004934946204601F0D5F8731CDDF810A0AA
:1058A00006930497002D7FF415AF17E7494640464D
:1058B00001F0C8FA0028BFF6B3AE414600230A2221
:1058C000204601F0C9F8069B03F1FF3A0B9B804686
:1058D000002B40F04C82129B002B40F355820A9320
:1058E000A9E65A464146204601F0F2F980465BE6B9
:1058F000AE4B04930333FFF7FDBBDDE90212002931
:105900007FF45FAEC2F31303002B00F0DF80029F31
:1059100058E601230B93259B069A134412930133F7
:10592000012B1E460A93B8BF01260021172E616481
:105930000ADD012204235B0003F11400B04211468A
:1059400002F10102F7D961640A9E25E401230B9359
:10595000259B002B2EDD12930A931E46E5E70023BC
:105960000B93D8E700230B93F2E70B9B002B7FF4FC
:10597000F7AE49464046FFF751FA069ADDF810B0F7
:1059800000F1300301320BF8013B0293069200262E
:1059900076E629463246204601F0EAF90546E5E674
:1059A000ABEB07079DE5DDE908234FF00209CDE9E0
:1059B00010231BE4012625960A96FFF7EABB03D1C4
:1059C000029BDB073FF568AEDA461BF8013D302B42
:1059D000FAD073E6069A01320692049A31231370C4
:1059E0006CE60D9A002A00F05A8103F23343059ABF
:1059F0001A440592079A16461A4407925F467CE5B8
:105A00004846FBF73DF8DDE90E23FBF7A3F8684BAA
:105A10000022FAF7E9FEA1F15073CDE910011193CC
:105A2000644B0022DDE90E01FAF7DCFEDDE910230C
:105A300005460E46FBF71EFB8146002840F07181AB
:105A4000DDE91001024601F1004328463146FBF72B
:105A5000F3FA00283FF49EAC4D46C2E400F02381E7
:105A6000069B5D42544B05F00F0203EBC203D3E9E2
:105A70000023DDE90801FBF76DF82D11CDE90E01DA
:105A800000F08D814D4E00234FF00209EF0706D53F
:105A9000D6E90023FBF75EF809F1010901236D1037
:105AA00006F10806F2D1002B3FF4BAABCDE90E01A6
:105AB000FFF7B6BB0C902EE5DDE9021200297FF45A
:105AC0003CAEC2F31303002B7FF437AE3C4F1740BC
:105AD000002F3FF477AD079B01330793059B0133FC
:105AE000059301276EE5002B12DD41460122204679
:105AF00001F03EF94946804601F0A4F9002840F340
:105B00002781029B392B00F005810BF131030293B1
